:03000000021CF1EE
:0C1CF100787FE4F6D8FD758122021D38D2
:101AE900206B65795F7363616E0D0A00204B455960
:101AF9005F325F505245530D0A0052203D20256642
:101B090020200D0A002564200D0A000D0A3D3D3DE7
:101B19003D3D3D3D3D3D3D3D3D3D3D3D3D3D3D3DEC
:101B29003D3D3D3D3D3D3D3D3D3D3D3D3D3D3D0D0C
:101B39000A00736B753A4B2564200D0A00736F66B2
:101B4900742076657273696F6E3A2573200D0A00E9
:101B5900312E30332E303000676170202564200D1E
:101B69000A0074696D6572202564200D0A003D3DE7
:101B79003D3D3D3D3D3D3D3D3D3D3D3D3D3D3D3D8C
:101B89003D3D3D3D3D3D3D3D3D3D3D3D3D3D3D3D7C
:031B99000D0A0032
:101B9C004200BB00004100BD004100BA004100B949
:011BAC000038
:1024FE00758E5390FE917401F090FF027410F022CD
:1012C700E4900000F09000BAE0700A121E919000BE
:1012D70000EFF08005E4900000F0900000E064016A
:1012E70070639000B8E0705D7BFF7A1A79E91208A5
:1012F700E212254CEF700D7F01122552122402E4F1
:10130700FF02248DE4FF122552121E079000A5E06C
:10131700FFD394034016A3E0FE70059000A4800954
:10132700EED3940340069000957402F09000BD74CC
:1013370001F0121F0F9000A5E0FF1216289000A6DB
:10134700E0FF021D7D12254CEF60030213F59000AC
:1013570000E0640270507BFF7A1A79F51208E29078
:1013670000A5E0C394095005E004F080069000A5AD
:101377007401F09000A5E0FFD394034016A3E0FEAC
:1013870070059000A48009EED39403400690009561
:101397007402F09000BD7401F0121F0F9000A5E0D9
:1013A700FF1216288045900000E06403704090000B
:1013B700A6E0C394055005E004F08005E49000A67C
:1013C700F09000A5E0D394034016A3E0FF700590CA
:1013D70000A48009EFD3940340069000957402F0AF
:0E13E7009000A6E0FF121D7D121E0712233B90
:0113F50022D5
:0818C000900006EEF0A3EFF02A
:1018C800900091E06402706A9000B8E06401706270
:1018D800900006A3E0FFE4900091F09000A904F0C6
:1018E800900072E0FED3940F4048EED39F400CE086
:1018F8009F9000A7F0A37401F08016900072E0FE9C
:10190800C3EF9EFF9000A7F01225379000A874023D
:10191800F09000A7E0FFC394024006EFD394144070
:1019280007E49000A7F0A3F012233B7D027F021288
:1019380023C59000A8E0FDB401149000A7E0FF7E45
:1019480000900006EE8FF0120624AFF0FE22EDB4F0
:1019580002189000A7E0FFC3900007E09FFF9000E7
:1019680006E09400FEF0A3EFF022900006E0FEA34C
:02197800E0FF8E
:01197A00224A
:100CFA00900008ECF0A3EDF0900006EEF0FAA3EFF6
:020D0A00F0FBFC
:100D0C00E490000AF0A37432F0A3740AF0A3120763
:100D1C00A600000000C3EB9432EA94004016900049
:100D2C0008E0FEA3E0FF900006E0FCA3E0FDD39FEB
:100D3C00EC9E4003020DD3E4120342E4FBFA797AF1
:100D4C007844120227C004C005C006C007900008F2
:100D5C00E0FCA3E0FDE4120342E4FBFA797A784468
:100D6C00120227D003D002D001D000120029C004F7
:100D7C00C005C006C007900006E0FCA3E0FDE4122D
:100D8C000342E4FBFA797A7844120227E4FBFA79FD
:100D9C00FF7843120227A804A905AA06AB07D007BF
:100DAC00D006D005D00412022790000D12079AE449
:100DBC00FFFEFDFC90000DE0F8A3E0F9A3E0FAA320
:100DCC00E0FB1202C450057E007FFF227BFF7A1BE2
:100DDC00790390000DE0FCA3E0FDA3E0FEA3E0FF8F
:100DEC0090004412079A1208E290000DE0FCA3E078
:100DFC00FDA3E0FEA3E0FFE4FBFAF9784112022721
:100E0C0090000D12079AE4FFFE7D927C4290000D3B
:100E1C00E0F8A3E0F9A3E0FAA3E0FB1202C450044B
:100E2C00E4FEFF2290000DE0FCA3E0FDA3E0FEA396
:100E3C00E0FF7BF37A1F79B6784212022790000DFF
:100E4C0012079A7FF37E1F7DB67C4290000DE0F86E
:100E5C00A3E0F9A3E0FAA3E0FB12011E7BF37A1FD7
:100E6C0079B678421202C4504C90000DE0FCA3E01D
:100E7C00FDA3E0FEA3E0FF7B497A9D7980783F12C9
:100E8C00022790000D12079A90000AE004F0E4FF8C
:100E9C00FE7D807C3F90000DE0F8A3E0F9A3E0FA22
:100EAC00A3E0FB1202C4600250BF90000AE0FFA353
:100EBC00E02FF0804E90000DE0FCA3E0FDA3E0FEDF
:100ECC00A3E0FF7B6D7AC5797E783F1202279000F4
:100EDC000D12079A90000AE004F0E4FFFE7D807C7E
:100EEC003F90000DE0F8A3E0F9A3E0FAA3E0FB12B9
:100EFC0002C440C190000BE0FF90000AE0FEC3EF7B
:0A0F0C009EA3F090000BE0FF7E00B2
:010F160022B8
:10105600E4900000F0A3F0A3F0A3F0A3F0A3F090B7
:1010660000BCE004F070069000BBE004F0D39000F2
:10107600BCE094109000BBE09427500302118EE46C
:10108600F0A3F07B0190000904F0A37400F0A374B0
:1010960004F07A0079021213F6900002E0FEA3E053
:1010A600FFA3E0FCA3E0FD120CFA900000EEF0A313
:1010B600EFF01218C0900000EEF0A3EFF07BFF7A7D
:1010C6001B790E900044EEF0A3EFF01208E2D390E5
:1010D6000003E09432900002E09400500302116D88
:1010E60012254CEF704D9000BDE0B40129E4F0D319
:1010F600900001E09432900000E094009000987413
:10110600024009F090009F740CF0800AF09000995C
:1011160014F090009FF09000A6E0FF121D7D900055
:10112600A5E0FF121628900000E0FEA3E0FF1218CB
:1011360003802E9000B8E0B40118E4FF12248D124B
:1011460024029000A5E0FF1216289000BF7401F05B
:10115600800FE4FF12248D7F04122457E49000BF11
:10116600F0E49000BAF022E49000B8F09000BFF0EE
:10117600122402E4FF12248D9000B974FFF0FF12CE
:0811860016289000BA7401F074
:01118E00223E
:101C4F001224FE1222C3122472D2AF12000E1224DB
:101C5F00BC120F177FC87E001223831223147F201C
:101C6F007E031224A57F0212252AE4FF12248D7B06
:101C7F00FF7A1B79141208E27BFF7A1B793B9000E5
:101C8F00447423F0A37433F01208E290004474FFFD
:101C9F00F0A3741BF0A37459F07BFF7A1B794612E3
:101CAF0008E27BFF7A1B79619000A5E0FF9000446A
:101CBF00E4F0A3EFF01208E27BFF7A1B796B900040
:101CCF00A6E0FF900044E4F0A3EFF01208E27BFFE0
:101CDF007A1B79771208E21212C712105612256872
:021CEF0080F57E
:1021BD00900008EEF0A3EFF0A3ECF0A3EDF0D39FA9
:1021CD00EC9E4004E4FF802290009FE0FFC390004E
:1021DD0009E09FFF900008E09400FEC390000BE023
:0E21ED009F90000AE09E50057F0A12248D226A
:10180300900006EEF0A3EFF0900099E0B4010D9084
:101813000006E0FCA3E0FD7F4D0218BA9000A5E0AE
:10182300B40A0040030218BF901832F82828730244
:10183300185002185C021868021874021880021803
:101843008C0218980218A40218A40218B09000067B
:10185300E0FCA3E0FD7F1E805E900006E0FCA3E0B9
:10186300FD7F2B8052900006E0FCA3E0FD7F2F80DC
:1018730046900006E0FCA3E0FD7F32803A9000062C
:10188300E0FCA3E0FD7F36802E900006E0FCA3E0A1
:10189300FD7F3C8022900006E0FCA3E0FD7F4180B9
:1018A30016900006E0FCA3E0FD7F46800A90000648
:0D18B300E0FCA3E0FD7F4B7E001221BD2272
:1023A500900094E0B401189000A5E0D39403400F89
:1023B5007403F0FF12162812233BE4900094F022D8
:101522000D0A3D3D3D3D3D3D3D3D3D3D3D3D3D3D4C
:101532003D3D3D3D3D3D3D3D3D3D3D3D3D3D3D3DD9
:101542003D3D3D3D3D3D3D3D3D3D0D0A00706F77CA
:101552006572206F6E20666C617368206761703AF5
:101562002564202074696D65723A2564200D0A0095
:10157200706F776572206F6E20666C61736820767B
:10158200616C75653A256420207369676E3A25643B
:10159200200D0A003D3D3D3D3D3D3D3D3D3D3D3D36
:1015A2003D3D3D3D3D3D3D3D3D3D3D3D3D3D3D3D69
:1015B2003D3D3D3D3D3D3D3D3D3D3D3D0D0A003DF9
:1015C2003D3D3D3D3D3D3D3D3D3D3D3D6669727389
:1015D2007420696E697420646174613D3D3D3D3DD6
:1015E2003D3D3D3D3D3D200D0A00307825303458CB
:1015F2002020307825303458202030782530345857
:101602002020307825303458200D0A00666C617332
:1016120068206761703A2564202074696D65723AAA
:061622002564200D0A0002
:101BAD004500A500000000004400AA2020050141C9
:031BBD0000AE0176
:06254C009000AEE0FF224A
:062552009000AEEFF02244
:10236100D310AF01C3C0D075FDF075FC0F8EFA8F8D
:10237100F975FDD275FC2D75FDE175FC1ED0D0926D
:02238100AF2289
:1022EC00D310AF01C3C0D08FFB75FDF075FC0FAEE2
:1022FC0004AF058EFA8FF975FDB475FC4B75FDE1D5
:08230C0075FC1ED0D092AF2237
:0C1F84007B017A0079A57D057F047E3C7E
:101F9000D310AF01C3C0D0900008EEF0A3EFF0A3C0
:0B1FA000EDF0A3EBF0A3EAF0A3E9F0E2
:101FAB00E4A3F0C2AFF090000AE0FF90000EE0C394
:101FBB009F502C90000BE0FBA3E475F00112063A46
:101FCB00A9F0FA120577FF900008E475F0011206EC
:101FDB003AADF0FC1222EC90000EE004F080C7D278
:011FEB00AF46
:051FEC00D0D092AF22ED
:040003008F828E83D7
:03000700E493FF80
:01000A0022D3
:1020FF00900008EEF0A3EFF0A3EBF0A3EAF0A3E952
:10210F00F0AF051DEF6028900008E475F00112068E
:10211F003A85F082F583E493FF90000AE0FBA3E495
:10212F0075F00112063AA9F0FAEF1205BD80D2221E
:10223700E4FDFCED2400FFE4343CFE12000374AA25
:102247002DF582E43400F583E0B507030C80037FA6
:1022570000220DEDB404DCECC3940440037F01229B
:022267007F00F6
:012269002252
:100F1700E4900000F090FE927404F0122237EF7014
:100F27000790000004F0807C7BFF7A157922120875
:100F3700E27B017A0079A57D057F047E3C1220FFC4
:100F47007BFF7A15794F9000A5E0FF900044E4F00D
:100F5700A3EFF09000A6E0FF900046E4F0A3EFF0C7
:100F67001208E27BFF7A1579729000A7E0FF9000E4
:100F770044E4F0A3EFF09000A8E0FF900046E4F00F
:100F8700A3EFF01208E27BFF7A1579961208E29038
:100F970000A5E0D394095006A3E09405400690000D
:100FA700007401F0900000E0640160030210337BDD
:100FB700FF7A1579C11208E29000A57401F0A374B5
:100FC70003F07F007E3C1223617B017A0079AA7DC2
:100FD70004121F90121F847B017A0079AA7D047F77
:100FE700007E3C1220FF7BFF7A1579EC9000AAE087
:100FF700FF900044E4F0A3EFF09000ABE0FF900017
:1010070046E4F0A3EFF09000ACE0FF900048E4F076
:10101700A3EFF09000ADE0FF90004AE4F0A3EFF0FB
:101027001208E27BFF7A1579961208E27BFF7A169F
:10103700790E9000A5E0FF900044E4F0A3EFF09054
:0F10470000A6E0FF900046E4F0A3EFF00208E2FD
:10233B007F047E3C1223617B017A0079AA7D047FA6
:10234B0000121F90121F847B017A0079A57D057FF7
:06235B00047E3C0220FF9D
:0E250E00EF1F70011E144E6004000080F322C7
:1024A5007DA07C01ED1D70011C144C70F7EF1F70B1
:0624B500011E144E70EA46
:0124BB0022FE
:03256C0002250E37
:10243C0090FF0974C1F090FF08F090FF07F090FF37
:0B244C0006F0D291D290D287D28622F7
:08213F00900044EFF0A3EDF065
:10214700E4A3F0F0900045E0FFA3E0C39F5027C24F
:1021570087900044E020E704C2868002D286D287B7
:102167007F057E0012256C900044E025E0F090008A
:0621770046E004F080CEFA
:01217D00223F
:08217E00900044EFF0A3EDF026
:10218600E4A3F0F0900045E0FFA3E0C39F5027C210
:1021960087900044E020E004C2868002D286D2877F
:1021A6007F057E0012256C900044E0C313F090007A
:0621B60046E004F080CEBB
:0121BC002200
:10245700900007EFF0C2917D047F8012213F90002A
:0B24670007E0FF7D0812213FD2912208
:10229700900042EFF0A3EDF0C2917D037FA01221E1
:1022A7003F900042E025E025E0FF7D0612213F90A8
:0C22B7000043E0FF7D0412217ED2912242
:09254300D291D290D287D28622F7
:081BC0004100BE004100BF001E
:05255E007F0602245776
:052563007F0402245773
:1023E400E4900000F0F0900000E0FFC39420500D52
:0D23F4007D0F122297900000E004F080E9B8
:0124010022B8
:10240200E4900041F0F0900041E0FFC39420500DB1
:0D241200E4FD122297900041E004F080E903
:01241F00229A
:1023140012243C7F521224577F301224577F0A1212
:1023240024577F081224577F021224577F06122451
:07233400571224020223E40A
:0E251C00E4FD7F1C122297E4FD7F1F02229730
:101D7D00900006EFF07F06122457E4FD7F1F12221C
:101D8D0097E4FD7F1C122297900006E014601B144F
:101D9D00602314602B14603A1460492405705A7D39
:101DAD000A7F1B1222977D0E80317D0B7F1B122225
:101DBD00977D0A80267D0E7F1B1222977D0A801B40
:101DCD007D0A7F1B1222977D0A7F1C1222977D0BA5
:101DDD0080227D0A7F1B1222977D0B7F1C1222977A
:101DED007D0A80107D0A7F1B1222977D0A7F1C12AF
:0A1DFD0022977D0E7F1F122297220D
:10162800900006EFF07F06122457E4FD7F1D12227A
:1016380097E4FD7F1E1222979000BFE06401700EB0
:101648009000BEE070057D060216FF02171290009A
:1016580006E0B401047D068063900006E0B4020B46
:101668007D0B7F1D1222977D0C8065900006E0B4EB
:10167800030B7D0F7F1D1222977D04805390000677
:10168800E0B4040B7D067F1D1222977D06804190F1
:101698000006E0B4050B7D0D7F1D1222977D0680A4
:1016A8002F900006E0B4060B7D0D7F1D1222977D5A
:1016B8000E801D900006E0B407067D077F1D805947
:1016C800900006E0B4080D7D0F7F1D1222977D0E55
:1016D8007F1E8045900006E0B4090D7D0F7F1D1226
:1016E80022977D067F1E8031900006E0F4702D90D1
:1016F80000BEE070157D017F1D1222977D0E7F1EB2
:101708001222979000BE7401F022E49000BEF0FD12
:0D1718007F1C122297E4FD7F1F12229722F2
:101BC8005E0073000000000000000000000000003C
:101BD80000000000000000000000000000000000FD
:091BE8000041009100410072006F
:1022C30090FF0E74C1F090FF0F7461F090FFA07443
:1022D30016F090FFA104F075CEFF75CDE675CC0620
:0922E300759E02759810D2AC2220
:0C253700C2AC8F993099FDC299D2AC2241
:03256F000225370B
:0B226A0090000DEBF0A3EAF0A3E9F0F8
:10227500E4FEEEC39D501A90000DE0FBA3E0FAA327
:10228500E0F98E82758300120590FF12256F0E808E
:01229500E167
:012296002225
:1023C5009000087455F0A3EFF0A3EDF0A3740DF0A1
:0F23D500A3740AF07B017A0079087D0502226A61
:06255800AE071225372238
:030023000220B206
:0D20B200C0E0C083C082C0D075D000C00760
:1020BF00E59830E030AF995398FE900091E01460AE
:1020CF0019047021EFB4551D900073F0900071E06A
:1020DF0004F09000917401F0800B900072EFF0907B
:0520EF0000917402F0F5
:0B20F400D007D0D0D082D083D0E032E3
:101BF1004100B8004100AF004200B000004100B216
:0F1C0100004200B300004100B5014200B60000F0
:10000E0090FF1D7461F090FF15F090FF16F090FFB9
:03001E0002F022CB
:10197B00E4900002F0A2A533900001F09000AFE0DC
:10198B0014602614604E147003021A1E24036003A5
:10199B00021A27900001E06003021A2C9000B0F0AD
:1019AB00A3F09000AF04F08078900001E0706B9092
:1019BB0000B1E004F070069000B0E004F0C39000BA
:1019CB00B1E094039000B0E09400403E9000AF74FF
:1019DB0002F08036900001E0B40106A37404F0809D
:1019EB003B9000B1E004F070069000B0E004F0C34F
:1019FB009000B1E094789000B0E09400400C90001F
:101A0B00027405F09000AF7403F07F0A7E0012247D
:101A1B00A5800E900001E0B401078000E49000AFB8
:061A2B00F0900002E0FF54
:011A31002292
:101A3200E4900002F0A2A633900001F09000B2E020
:101A420014602614604E147003021AD52403600336
:101A5200021ADE900001E06003021AE39000B3F084
:101A6200A3F09000B204F08078900001E0706B90D7
:101A720000B4E004F070069000B3E004F0C39000FC
:101A8200B4E094039000B3E09400403E9000B2743E
:101A920002F08036900001E0B40106A37404F080E5
:101AA2003B9000B4E004F070069000B3E004F0C391
:101AB2009000B4E094F09000B3E09400400C9000E9
:101AC200027406F09000B27403F07F0A7E001224C2
:101AD200A5800E900001E0B401078000E49000B2FE
:061AE200F0900002E0FF9D
:011AE80022DB
:101E910012197BBF05037F0122121A32BF062112DC
:101EA100254CBF01149000A9E0700E9000B804F019
:101EB1009000A9F012233B803CE49000B8F08035FB
:101EC1009000B5E0602330A60320B51D9000B8E076
:101ED10070177F32FE1224A5E49000B5F020A6030E
:101EE1007F032220B50F7F022230A60930B506906C
:101EF10000B57401F030A513D39000B7E0940190C0
:0D1F010000B6E094004004E4F0A3F07F007F
:011F0E0022B0
:101725007365742074696D65207365636F6E643AC3
:1017350025640D0A0065786368616E67655F686595
:1017450061745F76616C7565200D0A0074696D655D
:10175500207365636F6E643A2564200D0A0070720C
:101765006F74656374200D0A0074696D65206F667A
:1017750066200D0A0074696D655F746F5F302E35E4
:1017850048202074696D655F7365633D2564200D90
:101795000A0074696D655F746F5F31482020746954
:1017A5006D655F7365633D2564200D0A0074696D81
:1017B500655F746F5F3248202074696D655F73657E
:1017C500633D2564200D0A0074696D655F746F5F64
:1017D5003448202074696D655F7365633D25642019
:1017E5000D0A0074696D655F746F5F384820207459
:0E17F500696D655F7365633D2564200D0A0014
:101C100041009E0042009C00004200A000004100E4
:101C20009400410095004100A40041009F00410044
:101C30009800420096000042009A00004200920084
:0A1C400000410099004200A20000DC
:1024200090009CEEF0A3EFF0E4A3F07BFF7A177925
:0C24300025900044EEF0A3EFF00208E25B
:101F0F00EFB40A00506E901F1CF8282873021F3A76
:101F1F00021F44021F46021F48021F52021F5C028B
:101F2F001F66021F70021F7A021F7A900092E4F060
:101F3F00A3741EF02280028000900092E4F0A3743C
:101F4F003CF022900092E4F0A3745AF02290009299
:101F5F00E4F0A37478F022900092E4F0A37496F06A
:101F6F0022900092E4F0A374B4F022900092E4F077
:051F7F00A374F0F02244
:10205B009000A5E0B40A00504D90206BF82828732F
:10206B0002208902208B02209202209402209B02E4
:10207B00209D0220A40220AB0220AB0220AB8000EB
:10208B0090009F7401F022800090009F7403F02257
:10209B00800090009F7405F02290009F7408F0223E
:0720AB0090009F740CF0226D
:1021FB00900098E0B40234900096E475F00112065A
:10220B0024FEC3900093E095F0900092E09E501B4B
:10221B007BFF7A17793A1208E2E4900098F090006D
:0C222B0096F0A3F0900099F012205B22C6
:101E0700E490009EF09000A6E0FF700890009CF020
:101E1700A3F08052EFB4010C90009C7407F0A30468
:101E2700F0E48042EFB4020D90009C740EF0A374AE
:101E370010F0E48031EFB4030D90009C741CF0A304
:101E47007420F0E48020EFB4040D90009C7438F007
:101E5700A37440F0E4800FEFB4051790009C7470F2
:101E6700F0A37480F0E49000A0F0A3F090009AF043
:101E7700A3F07BFF7A17795190009CE0FFA3E090D5
:0A1E87000044CFF0A3EFF00208E2E0
:1024BC00E490FE80F0F589758CF2758AFBC28DD2A2
:0624CC00A9D28CD2AF2260
:03000B0002118F50
:10118F00C0E0C0F0C083C082C0D075D000C000C026
:10119F0001C002C003C004C005C006C00712254C21
:1011AF00EF600302128590009EE004F0E0C39464A8
:1011BF0050030212AC1221FB9000A4E0B4022D9058
:1011CF0000A1E004F070069000A0E004F0D39000BE
:1011DF00A1E094209000A0E0941C40109000A4E4A3
:1011EF00F09000A0F0A3F090009404F0D390009D35
:1011FF00E0940090009CE094004048A3E024FFF0AE
:10120F0090009CE034FFF0900095E06402706090D5
:10121F0000A1E004F070069000A0E004F0D390006D
:10122F00A1E094209000A0E0941C4043900094749F
:10123F0001F0A3E4F09000A0F0A3F07BFF7A177900
:10124F006380299000A6E060267F0112255290004E
:10125F009CE4F0A3F09000A0F0A3F0900095F09024
:10126F0000A4F01224027BFF7A17796E1208E29025
:10127F00009EE4F080279000B8E0B401209000A217
:10128F00E475F001120624FED3E5F094E0EE942EFF
:10129F00400B9000B8E4F09000A2F0A3F0D007D07C
:1012AF0006D005D004D003D002D001D000D0D0D0CA
:0812BF0082D083D0F0D0E032B0
:101FF10090009AE475F001120624FEE5F08EF012CD
:10200100081D201B070820230E10202B1C20203325
:102011003840203B70800000205A7BFF7A17797A84
:10202100801E7BFF7A17799780167BFF7A1779B22A
:10203100800E7BFF7A1779CD80067BFF7A1779E8CE
:1020410090009CE0FFA3E0900044CFF0A3EFF012DA
:0A20510008E2E490009AF0A3F022E8
:041C4A004100C00095
:10248D007E009000C0E0FD7C0012084AE47B64FAF7
:07249D00F9F81206FA8FDFC7
:0124A4002215
:1023830090FF0074C1F0E490FF9CF0AC06AD077EB3
:102393007A7F121205CFEF149000C0F0F5DE75DDE1
:0223A30097227F
:1024720090FF017401F090FF03F075B4807F147E29
:0B2482000012250E90FE9B7449F02212
:1024D200E4FFFE75B50143B440E5B430E5FB53B407
:0524E200DFAEB7AFB64C
:0124E70022D2
:1024E800E4FFFE75B50343B440E5B430E5FB53B4EF
:0524F800DFAEB7AFB636
:0124FD0022BC
:0B13F600900006EBF0A3EAF0A3E9F082
:1014010090000C1207A600000000E4900010F0F01C
:1014110090000CE0F8A3E0F9A3E0FAA3E0FB1224AA
:10142100D2E4FCFDEB2FFFEA3EFEED39FDEC38FC8A
:1014310090000C12079A900010E004F0E0C39405AC
:1014410040CE90000CE0FCA3E0FDA3E0FEA3E0FF92
:10145100E47B05FAF9F81206FA90000C12079AE4F7
:101461007F887E13FDFC90000CE0F8A3E0F9A3E077
:10147100FAA3E0FB12066FE4FB7A10F9F81206FA00
:10148100900006E0FBA3E0FAA3E0F9EE8FF012066C
:101491005090000C1207A600000000E4900010F02C
:1014A10090000CE0F8A3E0F9A3E0FAA3E0FB12241A
:1014B100E8E4FCFDEB2FFFEA3EFEED39FDEC38FCE4
:1014C10090000C12079A900010E004F0E0C394051C
:1014D10040CE90000CE0FCA3E0FDA3E0FEA3E0FF02
:1014E100E47B05FAF9F81206FA90000C12079AE467
:1014F1007F887E13FDFC90000CE0F8A3E0F9A3E0E7
:10150100FAA3E0FB12066FE4FB7A10F9F81206FA6F
:10151100900009E0FBA3E0FAA3E0F9EE8FF00206E8
:011521005079
:0D252A0075BD17EF75F02BA490FEA0F022F8
:0425680043BD10223D
:100026000203B0E86480F8E933E83360110460F055
:10003600ED33EC337009E8FCE9FDEAFEEBFF220440
:1000460060DED3EB9FEA9EE99DE8C2E78CF0C2F73B
:1000560095F0400CE8CCF8E9CDF9EACEFAEBCFFB07
:1000660012037B85D0F05804700320D5B3E80470E2
:10007600075002B2D50203BA92D5EC0460F7E4CC7D
:10008600C0E0C398F8603B94186008400DD0E0FBD0
:10009600020392E4FBFAC9FC8028E830E406E4C9CE
:1000A600FBE4CAFCE830E305E4C9CACBFCE8540724
:1000B6006010F8C3E913F9EA13FAEB13FBEC13FC2F
:1000C600D8F130F52FC3E49CFCEF9BFFEE9AFEEDD2
:1000D60099FDD0E0FBEF4E4D4C701222DB0302037C
:1000E600B7EC2CFCEF33FFEE33FEED33FDED30E7DE
:1000F600EB020392EF2BFFEE3AFEED39FDD0E0FB6B
:1001060050130BBB00030203BAED13FDEE13FEEF13
:0801160013FFEC13FC0203923D
:10011E00EC4D6011E8497017ED33EC3304600DE4DB
:10012E00FCFFFEFD22E933E8330470F80203B0123F
:10013E00037B58046009E4CC248150062850090240
:10014E0003BA2840030203B7C0E0EB4A7044B980FB
:10015E0006D0E0FB0203A6EF4E701CBD8008EBFF3D
:10016E00EAFEE9FD80EBE98DF0A4FEE5F002020760
:10017E00E9CDF9EAFEEBFFEF89F0A4FCE5F0CE89BC
:10018E00F0A42EFFE435F0CD89F0A42DFEE435F079
:10019E008067EF4E7005BD80D780C3EF8BF0A4ACA7
:1001AE00F0EE8BF0A42CFCE435F0F8EF8AF0A42CE2
:1001BE00E5F038FCE433CB8DF0A42CFCE5F03BF8F5
:1001CE00EE8AF0A42CFCE5F038F8E433CF89F0A4E5
:1001DE002CFCE5F038CF3400CE89F0A42FFFE5F0EB
:1001EE003EFEE433C98DF0A42EFEE5F039CD8AF043
:1001FE00A42FFFE5F03EFEE43DFD33D0E0FB5007BB
:10020E000BBB000F0203BAEC2CFCEF33FFEE33FEF8
:06021E00ED33FD02039226
:100224000203BAEC5D046005E8590470030203B0EC
:1002340012037B580460F6EC4860F2EC7004FDFE97
:10024400FF22C860DB2481C85009C39860025006AD
:100254000203B79850CAF582E9294B4A7005AB826C
:100264000203A675F0007C1A7880C3EF9BEE9AED2A
:1002740099400DC3EF9BFFEE9AFEED99FDE842F025
:10028400DC23ACF0D0E0FFD0E0FED0E0FDAB822078
:10029400E7101BEB60BAEC2CFCEF33FFEE33FEED02
:1002A40033FD020392E803F830E705C0F075F0006F
:1002B400EF2FFFEE33FEED33FD40B830E7C280AAE6
:1002C40074F8CC6480CCC86480C8F58204604FC3E1
:1002D400EB9FF5F0EA9E42F0E99D42F0E89C45F080
:1002E400603C501DE5825FFFE582D313CB5BCBF40A
:1002F4002B5582FB50280ABA002409B90020088033
:100304001DE5825BFBE582D313CF5FCFF4C3132FCC
:100314005582FF50090EBE00050DBD00010CC3EB54
:100324009FF5F0EA9E42F0E99D42F0E89C45F060BA
:0903340007CC4820E701B3EC22DC
:10033D0075F020800E75F010800575F0087D007E3B
:10034D00007F003392D530D50312078CEC3340106B
:10035D00EF33FFEE33FEED33FDEC33FCD5F0ED2244
:0E036D00E5F0247EA2D513CC92E7CDCEFF2280
:10087700E50D2444F582E43400F583E0050D22906C
:100887000041301003900044E475F0011207D702CD
:1008970005772009E97F2ED2098018EF540F24909D
:1008A700D43440D4FF300D0BEF24BFB41A005003EB
:1008B7002461FFE50E6002150E0511E511700205B2
:1008C7001030100E900041E475F0011207D7EF02C7
:1008D70005BD0225587403D2108003E4C210F50D3C
:1008E7009000411207EEE4F50EF510F511E50E60E4
:1008F700077F201208BA80F5750FFFC20AC209C226
:100907000BC20CC20EC20FC211120886FF700D3047
:1009170010057F001208CBAF11AE1022B4255FC2BD
:10092700D5C20D120886FF24D0B40A00501A75F0FC
:100937000A780E30D50508B6FF0106C6A426F620AC
:10094700D5047002D20C80D924CFB41A00EF50041A
:10095700C2E5D20D020BBDD20A80C6D20980C0D231
:100967000B80BCD2D580BAD20E80B47F201208BAD1
:10097700200B077401B50E0040F1120877FF12082B
:10098700BA0208F4D211D20F8095120877FB120829
:1009970077FA120877F94A4B700679BB7A0C7BFF16
:1009A700200B2EE50E602A7E008E827583001205CD
:1009B7009060060EEE650F70F0C2D5EBC0E0EAC09E
:1009C700E0E9C0E0EE120C1ED0E0F9D0E0FAD0E08A
:1009D700FB120577FF60AAEBC0E0EAC0E0E9C0E0E0
:1009E7001208BAD0E02401F9D0E03400FAD0E0FBD5
:1009F700E50F0460DCD50FD98087D20B80A2120CDB
:100A07000060F7E50F7001041203C5A90F600DE53B
:100A17000F600914F50F120CA8EF60F3EA30E70234
:100A2700F404C3995079EAF4250F0430E701E4048C
:100A3700F50F800D120C0060C1EA050F250F120398
:100A4700C5EA900070F030E701E4250F04D50F04E4
:100A5700200E0114120C1EE4C0E0120CA8900070C6
:100A6700E0601320E70714F01208A2802204F0D0F8
:100A7700E014C0E07F001208A2E50F600712089992
:100A8700150F800B300E03120899D0E00208F4D03E
:100A9700E00480C4120C00609EE50F041203C590A9
:100AA7000070EAF0E50F200E026001042404120C26
:010AB7001E20
:100AB80074FF04C0E0120CA81208A2E50F200E0271
:100AC8006003120899D0E0B50FE87F451208AC9092
:100AD8000070E07F2B30E7047F2DF404C0E012089B
:100AE800BAD0E075F00A84C0F01208A3D0E012086A
:100AF800A30208F4791080027908C20FC211800895
:100B0800D2D5790A8004790AC2D5E50F047002F5B6
:100B18000FE4FAFDFEFF120877FC7B08200A131287
:100B28000877FD7B1030090A120877FE120877FF54
:100B38007B20EC3382D592D55013C3E43009069F4D
:100B4800FFE49EFEE4200A039DFDE49CFCE4CBF850
:100B5800C20AEC700CCFCECDCCE824F8F870F38044
:100B680017C3EF33FFEE33FEED33FDEC33FCEB330D
:100B7800FB994002FB0FD8E9EB300A05F8D0E0C436
:100B880048B20AC0E00AEC4D4E4F78207B0070C294
:100B9800EAB50F0040BCC0E0120C20D0F0D0E02035
:100BA8000A04C4C0E0C4B20AC0F01208A3D0F0D549
:100BB800F0EB0208F41207F70991530AFC5809628E
:100BC8004C095E420B004F0B08440B084909774358
:100BD8000B0E550A3B460A9B450A05470CDB500994
:100BE800662D096A2E098D2B096E23098B200CC4EA
:100BF8002A09264800000985E50FB4FF03750F068A
:100C0800120877FC120877FD120877FE120877FFA2
:100C1800900069020402790AA2D5200C14300E094A
:100C2800B910020404B9080104A2D5200F0250012A
:100C380004200B68920BB50E005034C0E07F2030C2
:100C48000C197F30A20B720F720E500F120C77C264
:100C58000BC20FC20EC2117F30800F300E03E9C0E5
:100C6800E01208BA300E03D0E0F9D0E0B50ECC306F
:100C78000E177F30B9100C1208BA7F58300D077F55
:100C8800788003B908031208BA300B057F2D0208D3
:100C9800BA7F202011F87F2B200FF322920B80CFF0
:100CA8007F00B40700500B2469F582E43400F58313
:100CB800E0FF22286E756C6C2900D20A1208773082
:100CC8000AF8C20A780E30D50108F60209262D5016
:100CD8004349581208772403B405004001E4900CF6
:100CE800D6931208AB743A1208ABD20C750E0402F4
:020CF8000AFCF4
:10037B00E9D2E7C933E833F892D5EDD2E7CD33ECC8
:07038B0033FC5002B2D52241
:10039200EC30E7100FBF000C0EBE00080DBD0004CC
:1003A2000BEB6014A2D5EB13FCED92E7FD2274FF78
:1003B200FCFDFEFF22E480F8A2D574FF13FC7D80D1
:0303C200E480EFE5
:1003C500F920E73624F950037907E4F42402FBE524
:1003D50082158270021583DBF6E024FB501BE96071
:1003E50014E4F0E582158270021583E004F0B40A86
:0D03F50008E4F0D9EE7401F00A22C2D5220E
:10040200ED33EC3392D5FA602AB4FF33EDC2E77BC9
:10041200FF60067A047927E4227A04793020D50431
:100422007A04792B224E614E002B494E46002D490B
:100432004E4600E47A08F0A3DAFC7B00740722C07F
:1004420083C082ECC0E0EDC0E0EEC0E0EFC0E0EAC5
:1004520075F010A4CAABF075F04DA42BFBE435F097
:10046200FCEA2410FAEB34C5FBEC34D9FCEDC2E70C
:10047200FF75F056A4F42411C5F0F434C58FF0A42E
:100482002AE5F03BE43CF020E714120537D0E0FF08
:10049200D0E0FED0E0FDD0E0FC1202278014F4048C
:1004A200120537D0E0FFD0E0FED0E0FDD0E0FC1234
:1004B200011ED082D083E0FAEDD2E7CD33EC3324B3
:1004C20082FBE4C3CF33CFCE33CECD33CD33DBF398
:1004D2007B0775F00A846004F0A31B0AE5F0F0A321
:1004E2008FF0740AA4FFACF08EF0740AA42CFEAC58
:1004F200F050010C8DF0740AA42CFDE435F0F0A349
:05050200DBDE7407229E
:100507003F8000004120000042C80000447A0000FC
:10051700461C400047C35000497424004B1896807E
:100527004CBEBC205A0E1BCA6753C21C749DC5AE75
:10053700FB60065407601C2323120565EB543860E3
:100547000912055112056012011EECF8EDF9EEFAD9
:10055700EFCB22EB12056080F1543803241C900581
:1005670007FE93FC0EEE93FD0EEE930ECE93FF2245
:101CFD00021C4FE493A3F8E493A34003F68001F292
:101D0D0008DFF48029E493A3F85407240CC8C333E7
:101D1D00C4540F4420C8834004F456800146F6DFB6
:101D2D00E4800B0102040810204080901B9CE47E8F
:101D3D00019360BCA3FF543F30E509541FFEE493AB
:101D4D00A360010ECF54C025E060A840B8E493A372
:101D5D00FAE493A3F8E493A3C8C582C8CAC583CA9D
:101D6D00F0A3C8C582C8CAC583CADFE9DEE780BE55
:011C4E000095
:10057700BB010689828A83E0225002E722BBFE0282
:09058700E32289828A83E49322B5
:10059000BB010CE58229F582E5833AF583E0225020
:1005A00006E92582F8E622BBFE06E92582F8E2226A
:0D05B000E58229F582E5833AF583E4932284
:1005BD00BB010689828A83F0225002F722BBFE011D
:0205CD00F32217
:1005CF00BC000BBE0029EF8DF084FFADF022E4CC10
:1005DF00F875F008EF2FFFEE33FEEC33FCEE9DECD9
:1005EF00984005FCEE9DFE0FD5F0E9E4CEFD22ED1F
:1005FF00F8F5F0EE8420D21CFEADF075F008EF2F69
:10060F00FFED33FD4007985006D5F0F222C398FD59
:05061F000FD5F0EA22F6
:10062400C5F0F8A3E028F0C5F0F8E5821582700261
:060634001583E038F022FE
:10063A00A3F8E0C5F025F0F0E58215827002158373
:06064A00E0C838F0E822D0
:10065000BB010A89828A83F0E5F0A3F0225006F7F5
:0F06600009A7F01922BBFE06F3E5F009F31922F2
:10066F00E88FF0A4CC8BF0A42CFCE98EF0A42CFC2A
:10067F008AF0EDA42CFCEA8EF0A4CDA8F08BF0A4A8
:10068F002DCC3825F0FDE98FF0A42CCD35F0FCEB07
:10069F008EF0A4FEA9F0EB8FF0A4CFC5F02ECD39CC
:0F06AF00FEE43CFCEAA42DCE35F0FDE43CFC2239
:1006BE0075F008758200EF2FFFEE33FECD33CDCCF3
:1006CE0033CCC58233C5829BED9AEC99E582984076
:1006DE000CF582EE9BFEED9AFDEC99FC0FD5F0D653
:1006EE00E4CEFBE4CDFAE4CCF9A88222B800C1B97D
:1006FE000059BA002DEC8BF084CFCECDFCE5F0CBBB
:10070E00F97818EF2FFFEE33FEED33FDEC33FCEBF3
:10071E0033FB10D703994004EB99FB0FD8E5E4F9AE
:10072E00FA227818EF2FFFEE33FEED33FDEC33FC9B
:10073E00C933C910D7059BE99A4007EC9BFCE99A8F
:10074E00F90FD8E0E4C9FAE4CCFB2275F010EF2FD4
:10075E00FFEE33FEED33FDCC33CCC833C810D707D4
:10076E009BEC9AE899400AED9BFDEC9AFCE899F80F
:0E077E000FD5F0DAE4CDFBE4CCFAE4C8F922A2
:0E078C00C3E49FFFE49EFEE49DFDE49CFC227E
:0C079A00ECF0A3EDF0A3EEF0A3EFF022D2
:1007A600A8828583F0D083D0821207BD1207BD12BE
:1007B60007BD1207BDE473E493A3C583C5F0C583E3
:1007C600C8C582C8F0A3C583C5F0C583C8C582C89D
:0107D6002200
:1007D700F8E0FBA3A3E0F925F0F0E58215827002AB
:0707E7001583E0FA38F0224F
:0907EE00EBF0A3EAF0A3E9F0220C
:1007F700D083D082F8E4937012740193700DA3A391
:1008070093F8740193F5828883E4737402936860A4
:06081700EFA3A3A380DFA4
:10081D00D083D082F8E4937012740193700DA3A36A
:10082D0093F8740193F5828883E473740293B5F0A1
:0D083D00067403936860E9A3A3A3A380D809
:10084A00EC8EF0A4CCC5F0CCCDF8EFA4CEC5F02D3B
:10085A00FDE43CFCE8A42EC8C5F03DFDE43CFCEFF9
:0D086A00A4FFE5F028FEE43DFDE43CFC2287
:00000001FF
