:03000000021C627D
:0C1C6200787FE4F6D8FD758122021CA9F1
:101B0100206B65795F7363616E0D0A00204B455947
:101B11005F6C65645F505245530D0A00204B455977
:101B21005F325F505245530D0A000D0A3D3D3D3D68
:101B31003D3D3D3D3D3D3D3D3D3D3D3D3D3D3D3DD4
:101B41003D3D3D3D3D3D3D3D3D3D3D3D3D3D0D0A27
:101B510000736B753A4B2564200D0A00736F667430
:101B61002076657273696F6E3A2573200D0A003114
:101B71002E30302E303000676170202564200D0A30
:101B81000074696D6572202564200D0A003D3D3D9C
:101B91003D3D3D3D3D3D3D3D3D3D3D3D3D3D3D3D74
:101BA1003D3D3D3D3D3D3D3D3D3D3D3D3D3D3D0D94
:021BB1000A0028
:101814004200B000004100B2004100AF004100AE00
:0118240000C3
:10000E00758E5390FE917401F090FF027410F022E1
:100EFC00E4900000F09000AFE0700A121E8B90009E
:100F0C0000EFF08005E4900000F0900000E0640138
:100F1C0070699000A1E070637BFF7A1B7901120865
:100F2C00E21225F1EF70107F011225F7122466E40E
:100F3C009000A2F00225DC1225B5E4FF1225F71271
:100F4C001D789000A4E0FFD394034016A3E0FE703C
:100F5C00059000958009EED39403400690008674AA
:100F6C0002F09000B27401F0121F0E9000A4E0FF8A
:100F7C001215189000A5E0FF021CEE1225F1EF608F
:100F8C0003021049900000E0B4040C7BFF7A1B793B
:100F9C000D1208E21225B5900000E06402705312A5
:100FAC0025B57BFF7A1B791D1208E29000A4E0C3E3
:100FBC0094095005E004F080069000A47401F090B0
:100FCC0000A4E0FFD394034016A3E0FE700590004C
:100FDC00958009EED3940340069000867402F0903D
:100FEC0000B27401F0121F0E9000A4E0FF1215184D
:100FFC008048900000E0640370431225B59000A572
:10100C00E0C394055005E004F08005E49000A5F0E1
:10101C009000A4E0D394034016A3E0FF7005900069
:10102C00958009EFD3940340069000867402F090EB
:0D103C0000A5E0FF121CEE121D7812239F8C
:011049002284
:0818D800900006EEF0A3EFF012
:1018E000900081E06402706A9000A1E0640170627F
:1018F000900006A3E0FFE4900081F09000A804F0BF
:10190000900062E0FED3940F4048EED39F400CE07D
:101910009F9000A6F0A37401F08016900062E0FE94
:10192000C3EF9EFF9000A6F01225D09000A774028E
:10193000F09000A6E0FFC394024006EFD394144059
:1019400007E49000A6F0A3F012239F7D027F02120D
:1019500024299000A7E0FDB401149000A6E0FF7ECA
:1019600000900006EE8FF0120624AFF0FE22EDB4D8
:1019700002189000A6E0FFC3900007E09FFF9000D0
:1019800006E09400FEF0A3EFF022900006E0FEA334
:02199000E0FF76
:011992002232
:100CFA00900008ECF0A3EDF0900006EEF0FAA3EFF6
:020D0A00F0FBFC
:100D0C00E490000AF0A37432F0A3740AF0A3120763
:100D1C00A600000000C3EB9432EA94004016900049
:100D2C0008E0FEA3E0FF900006E0FCA3E0FDD39FEB
:100D3C00EC9E4003020DD3E4120342E4FBFA797AF1
:100D4C007844120227C004C005C006C007900008F2
:100D5C00E0FCA3E0FDE4120342E4FBFA797A784468
:100D6C00120227D003D002D001D000120029C004F7
:100D7C00C005C006C007900006E0FCA3E0FDE4122D
:100D8C000342E4FBFA797A7844120227E4FBFA79FD
:100D9C00FF7843120227A804A905AA06AB07D007BF
:100DAC00D006D005D00412022790000D12079AE449
:100DBC00FFFEFDFC90000DE0F8A3E0F9A3E0FAA320
:100DCC00E0FB1202C450057E007FFF2290000DE074
:100DDC00FCA3E0FDA3E0FEA3E0FF7BF67A28799C60
:100DEC00784012022790000D12079AE4FFFE7D92C4
:100DFC007C4290000DE0F8A3E0F9A3E0FAA3E0FB3D
:100E0C001202C45004E4FEFF2290000DE0FCA3E0AB
:100E1C00FDA3E0FEA3E0FF7BF37A1F79B6784212C4
:100E2C00022790000D12079A7FF37E1F7DB67C423D
:100E3C0090000DE0F8A3E0F9A3E0FAA3E0FB1201A7
:100E4C001E7BF37A1F79B678421202C4504C900084
:100E5C000DE0FCA3E0FDA3E0FEA3E0FF7B497A9D3F
:100E6C007980783F12022790000D12079A90000AA1
:100E7C00E004F0E4FFFE7D807C3F90000DE0F8A3E1
:100E8C00E0F9A3E0FAA3E0FB1202C4600250BF90A9
:100E9C00000AE0FFA3E02FF0804E90000DE0FCA3D1
:100EAC00E0FDA3E0FEA3E0FF7B6D7AC5797E783F81
:100EBC0012022790000D12079A90000AE004F0E449
:100ECC00FFFE7D807C3F90000DE0F8A3E0F9A3E0ED
:100EDC00FAA3E0FB1202C440C190000BE0FF9000AB
:0F0EEC000AE0FEC3EF9EA3F090000BE0FF7E0034
:010EFB0022D4
:1013F000E4900000F0A3F0A3F0A3F0A3F0A3F0901A
:1014000000B1E004F070069000B0E004F0D390006A
:10141000B1E094109000B0E094275003021517E457
:10142000F0A3F07B0190000904F0A37400F0A37412
:1014300004F07A0079021212C4900002E0FEA3E0E8
:10144000FFA3E0FCA3E0FD120CFA900000EEF0A375
:10145000EFF01218D8900000EEF0A3EFF0D3900058
:1014600003E09432900002E0940050030214F6125C
:1014700025F1EF704D9000B2E0B40129E4F0D39073
:101480000001E09432900000E09400900089740222
:101490004009F0900090740CF0800AF090008A14DB
:1014A000F0900090F09000A5E0FF121CEE9000A4D8
:1014B000E0FF121518900000E0FEA3E0FF121E02EC
:1014C000802E9000A1E0B40118E49000A2F0122454
:1014D000669000A4E0FF1215189000B47401F0802B
:1014E0000FE49000A2F07F041224D8E49000B4F03E
:1014F000E49000AFF022E49000A1F09000B4F0126C
:101500002466E49000A2F09000AE74FFF0FF121584
:07151000189000AF7401F018
:0115170022B1
:101BB30012000E1223271224F3D2AF12248412250B
:101BC3005712104A1225B51223787F207E0312255F
:101BD300401224667F081215181225DC7F02122595
:101BE300C3E49000A2F07BFF7A1B792B1208E27BFF
:101BF300FF7A1B79529000347423F0A37444F012DB
:101C030008E290003474FFF0A3741BF0A37470F027
:101C13007BFF7A1B795D1208E27BFF7A1B79789050
:101C230000A4E0FF900034E4F0A3EFF01208E27B9D
:101C3300FF7A1B79829000A5E0FF900034E4F0A3C3
:101C4300EFF01208E27BFF7A1B798E1208E2120E84
:0F1C5300FC1213F012250E1221F812260880EF52
:10223300900006EEF0A3EFF0C3E09D900006E09C53
:102243005006E49000A2F022900090E0FFC39000BB
:1022530007E09FFF900006E09400FEC3ED9FEC9E15
:0922630050069000A27401F02263
:101E020090008AE0B40108AD07AC067F4D80749063
:101E120000A4E0B40A005070901E21F82828730232
:101E22001E3F021E47021E4F021E57021E5F021E67
:101E320067021E6F021E77021E77021E7FAD07AC7D
:101E4200067F1E803EAD07AC067F2B8036AD07AC09
:101E5200067F2F802EAD07AC067F328026AD07AC01
:101E6200067F36801EAD07AC067F3C8016AD07AC00
:101E7200067F41800EAD07AC067F468006AD07ACFB
:091E8200067F4B7E001222332280
:10240900900085E0B401189000A4E0D39403400F34
:102419007403F0FF12151812239FE4900085F0222F
:101630000D0A3D3D3D3D3D3D3D3D3D3D3D3D3D3D3D
:101640003D3D3D3D3D3D3D3D3D3D3D3D3D3D3D3DCA
:101650003D3D3D3D3D3D3D3D3D3D0D0A00706F77BB
:101660006572206F6E20666C617368206761703AE6
:101670002564202074696D65723A2564200D0A0086
:10168000706F776572206F6E20666C61736820766C
:10169000616C75653A256420207369676E3A25642C
:1016A000200D0A003D3D3D3D3D3D3D3D3D3D3D3D27
:1016B0003D3D3D3D3D3D3D3D3D3D3D3D3D3D3D3D5A
:1016C0003D3D3D3D3D3D3D3D3D3D3D3D0D0A003DEA
:1016D0003D3D3D3D3D3D3D3D3D3D3D3D666972737A
:1016E0007420696E697420646174613D3D3D3D3DC7
:1016F0003D3D3D3D3D3D200D0A00307825303458BC
:101700002020307825303458202030782530345847
:101710002020307825303458200D0A00666C617323
:1017200068206761703A2564202074696D65723A9B
:061730002564200D0A00F3
:101825004500A400000000004400A9202005014156
:0318350000AD0102
:0625F1009000ADE0FF22A6
:0625F7009000ADEFF022A0
:1023C500D310AF01C3C0D075FDF075FC0F8EFA8F29
:1023D500F975FDD275FC2D75FDE175FC1ED0D09209
:0223E500AF2225
:10235000D310AF01C3C0D08FFB75FDF075FC0FAE7D
:1023600004AF058EFA8FF975FDB475FC4B75FDE170
:0823700075FC1ED0D092AF22D3
:0C1F83007B017A0079A47D057F047E3C80
:101F8F00D310AF01C3C0D0900008EEF0A3EFF0A3C1
:0B1F9F00EDF0A3EBF0A3EAF0A3E9F0E3
:101FAA00E4A3F0C2AFF090000AE0FF90000EE0C395
:101FBA009F502C90000BE0FBA3E475F00112063A47
:101FCA00A9F0FA120577FF900008E475F0011206ED
:101FDA003AADF0FC12235090000EE004F080C7D214
:011FEA00AF47
:051FEB00D0D092AF22EE
:040003008F828E83D7
:03000700E493FF80
:01000A0022D3
:1020FE00900008EEF0A3EFF0A3EBF0A3EAF0A3E953
:10210E00F0AF051DEF6028900008E475F00112068F
:10211E003A85F082F583E493FF90000AE0FBA3E496
:10212E0075F00112063AA9F0FAEF1205BD80D2221F
:10226C00E4FDFCED2400FFE4343CFE12000374A9F1
:10227C002DF582E43400F583E0B507030C80037F71
:10228C0000220DEDB404DCECC3940440037F012266
:02229C007F00C1
:01229E00221D
:10104A00E4900000F090FE927404F012226CEF70AB
:10105A000790000004F0807C7BFF7A167930120832
:10106A00E27B017A0079A47D057F047E3C1220FE92
:10107A007BFF7A16795D9000A4E0FF900034E4F0DB
:10108A00A3EFF09000A5E0FF900036E4F0A3EFF0A4
:10109A001208E27BFF7A1679809000A6E0FF9000A2
:1010AA0034E4F0A3EFF09000A7E0FF900036E4F0FC
:1010BA00A3EFF01208E27BFF7A1679A41208E290F5
:1010CA0000A4E0D394095006A3E0940540069000DA
:1010DA00007401F0900000E0640160030211667B75
:1010EA00FF7A1679CF1208E29000A47401F0A37473
:1010FA0003F07F007E3C1223C57B017A0079A97D2B
:10110A0004121F8F121F837B017A0079A97D047F45
:10111A00007E3C1220FE7BFF7A1679FA9000A9E045
:10112A00FF900034E4F0A3EFF09000AAE0FF9000F3
:10113A0036E4F0A3EFF09000ABE0FF900038E4F063
:10114A00A3EFF09000ACE0FF90003AE4F0A3EFF0D8
:10115A001208E27BFF7A1679A41208E27BFF7A175B
:10116A00791C9000A4E0FF900034E4F0A3EFF09023
:0F117A0000A5E0FF900036E4F0A3EFF00208E2DA
:10239F007F047E3C1223C57B017A0079A97D047FDF
:1023AF0000121F8F121F837B017A0079A47D057F96
:0623BF00047E3C0220FE3A
:0E259900EF1F70011E144E6004000080F3223C
:102540007DA07C01ED1D70011C144C70F7EF1F7015
:06255000011E144E70EAAA
:012556002262
:03260C000225990B
:1024BD0090FF0974C1F090FF08F090FF07F090FFB6
:0B24CD0006F0D291D290D287D2862276
:08213E00900034EFF0A3EDF076
:10214600E4A3F0F0900035E0FFA3E0C39F5027C260
:1021560087900034E020E704C2868002D286D287C8
:102166007F057E0012260C900034E025E0F09000FA
:0621760036E004F080CE0B
:01217C002240
:08217D00900034EFF0A3EDF037
:10218500E4A3F0F0900035E0FFA3E0C39F5027C221
:1021950087900034E020E004C2868002D286D28790
:1021A5007F057E0012260C900034E0C313F09000EA
:0621B50036E004F080CECC
:0121BB002201
:1024D800900007EFF0C2917D047F8012213E9000AA
:0B24E80007E0FF7D0812213ED2912288
:1022FB00900032EFF0A3EDF0C2917D037FA012218D
:10230B003E900032E025E025E0FF7D0612213E9055
:0C231B000033E0FF7D0412217DD29122EE
:0925E800D291D290D287D2862252
:081838004100B3004100B400BF
:05001E007F060224D85A
:052603007F040224D851
:10244800E4900000F0F0900000E0FFC39420500DED
:0D2458007D0F1222FB900000E004F080E9EF
:012465002254
:10246600E4900031F0F0900031E0FFC39420500D6D
:0D247600E4FD1222FB900031E004F080E94B
:012483002236
:102378001224BD7F521224D87F301224D87F0A122B
:1023880024D87F081224D87F021224D87F0612246A
:07239800D81224660224485C
:0E25A700E4FD7F1C1222FBE4FD7F1F0222FBDD
:101CEE00900006EFF07F061224D8E4FD7F1F12222B
:101CFE00FBE4FD7F1C1222FB900006E014601B1417
:101D0E00602314602B14603A1460492405705A7DC8
:101D1E000A7F1B1222FB7D0E80317D0B7F1B122250
:101D2E00FB7D0A80267D0E7F1B1222FB7D0A801B07
:101D3E007D0A7F1B1222FB7D0A7F1C1222FB7D0B6C
:101D4E0080227D0A7F1B1222FB7D0B7F1C1222FB41
:101D5E007D0A80107D0A7F1B1222FB7D0A7F1C12DA
:0A1D6E0022FB7D0E7F1F1222FB22D4
:10151800900006EFF07F061224D8E4FD7F1D12220A
:10152800FBE4FD7F1E1222FB9000B4E064017023EF
:101538009000B3E070157D067F1D1222FB7D0E7FA3
:101548001E1222FB9000B37401F022E49000B3F065
:10155800021622900006E0B401047D068063900024
:1015680006E0B4020B7D0B7F1D1222FB7D0C80650B
:10157800900006E0B4030B7D0F7F1D1222FB7D0453
:101588008053900006E0B4040B7D067F1D1222FBF9
:101598007D068041900006E0B4050B7D0D7F1D128D
:1015A80022FB7D06802F900006E0B4060B7D0D7FA0
:1015B8001D1222FB7D0E801D900006E0B407067DFB
:1015C800077F1D805F900006E0B4080D7D0F7F1D2A
:1015D8001222FB7D0E7F1E804B900006E0B4090DA1
:1015E8007D0F7F1D1222FB7D067F1E80379000062F
:1015F800E0F470339000B3E070177D017F1D122274
:10160800FB7D0E7F1E1222FB9000B37401F00225B1
:10161800B5E49000B3F01225DCE4FD7F1C1222FB38
:08162800E4FD7F1F1222FB22EA
:101840005E006300000000000000000000000000D7
:101850000000000000000000000000000000000088
:091860000041008100410062001A
:1023270090FF0E74C1F090FF0F7461F090FFA074DE
:1023370016F090FFA104F075CEFF75CDE675CC06BB
:09234700759E02759810D2AC22BB
:0C25D000C2AC8F993099FDC299D2AC22A8
:03260F000225D0D1
:0B22CE0090000DEBF0A3EAF0A3E9F094
:1022D900E4FEEEC39D501A90000DE0FBA3E0FAA3C3
:1022E900E0F98E82758300120590FF12260F0E8089
:0122F900E103
:0122FA0022C1
:102429009000087455F0A3EFF0A3EDF0A3740DF03C
:0F243900A3740AF07B017A0079087D050222CE98
:0625FD00AE071225D022FA
:030023000220B107
:0D20B100C0E0C083C082C0D075D000C00761
:1020BE00E59830E030AF995398FE900081E01460BF
:1020CE0019047021EFB4551D900063F0900061E08B
:1020DE0004F09000817401F0800B900062EFF0909C
:0520EE0000817402F006
:0B20F300D007D0D0D082D083D0E032E4
:101869004100A1004100A3004100A20042009800EC
:101879000041009A0042009B000041009D00420087
:071889009E00004100A001D8
:1024840090FF1D7461F090FF15F090FF16F090FF1F
:0D24940002F090FF1774C1F090FF00F022DD
:10250E002082099000A3E0700304F0229000A3E063
:0A251E00B401063082037402F022BB
:1021F8009000A2E0B40131A3E0B4022E900098E46C
:1022080075F001120624FED3E5F0941FEE94004009
:1022180019E4900098F0A3F0D2807F03FE122540C5
:0A222800C280E49000A3F022C280FF
:012232002289
:10199300E4900002F0A2A533900001F090009AE0D9
:1019A30014602614604E147003021A362403600375
:1019B300021A3F900001E06003021A4490009BF07A
:1019C300A3F090009A04F08078900001E0706B908F
:1019D300009CE004F0700690009BE004F0C39000CC
:1019E3009CE0940390009BE09400403E90009A7426
:1019F30002F08036900001E0B40106A37404F08085
:101A03003B90009CE004F0700690009BE004F0C360
:101A130090009CE0947890009BE09400400C900030
:101A2300027405F090009A7403F07F0A7E00122579
:101A330040800E900001E0B401078000E490009A1A
:061A4300F0900002E0FF3C
:011A4900227A
:101A4A00E4900002F0A2A633900001F090009DE01D
:101A5A0014602614604E147003021AED2403600306
:101A6A00021AF6900001E06003021AFB90009EF051
:101A7A00A3F090009D04F08078900001E0706B90D4
:101A8A00009FE004F0700690009EE004F0C390000E
:101A9A009FE0940390009EE09400403E90009D7465
:101AAA0002F08036900001E0B40106A37404F080CD
:101ABA003B90009FE004F0700690009EE004F0C3A3
:101ACA0090009FE094F090009EE09400400C9000FB
:101ADA00027406F090009D7403F07F0A7E001225BE
:101AEA0040800E900001E0B401078000E490009D60
:061AFA00F0900002E0FF85
:011B000022C2
:101E8B00121993BF05037F01229000A0E06012207E
:101E9B00A50F7F327E00122540E49000A0F07F0456
:101EAB0022121A4ABF06211225F1BF01149000A875
:101EBB00E0700E9000A104F09000A8F012239F8018
:101ECB003FE49000A1F080389000A0E0602330A6A2
:101EDB000320B51D9000A1E070177F32FE12254044
:101EEB00E49000A0F020A6037F032220B5127F020E
:101EFB002230A60C30B50930A5069000A07401F075
:021F0B007F0055
:011F0D0022B1
:101736007365742074696D65207365636F6E643AB2
:1017460025640D0A0065786368616E67655F686584
:1017560061745F76616C7565200D0A0074696D654C
:10176600207365636F6E643A2564200D0A007072FB
:101776006F74656374200D0A0074696D65206F6669
:1017860066200D0A0074696D655F746F5F302E35D3
:1017960048202074696D655F7365633D2564200D7F
:1017A6000A0074696D655F746F5F31482020746943
:1017B6006D655F7365633D2564200D0A0074696D70
:1017C600655F746F5F3248202074696D655F73656D
:1017D600633D2564200D0A0074696D655F746F5F53
:1017E6003448202074696D655F7365633D25642008
:1017F6000D0A0074696D655F746F5F384820207448
:0E180600696D655F7365633D2564200D0A0002
:1018900041008F0042008D00004200910000410095
:1018A0008500410086004100950041009000410004
:1018B0008900420087000042008B00004200830044
:1018C0000041008A0042009300004200960000415F
:0318D00000820093
:0E25B5009000827401F0E4900096F0A3F022F2
:0C25DC00E4900082F0900096F0A3F02242
:10229F00900082E0B40125D2A7900096E475F0017A
:1022AF00120624FED3E5F0942CEE94014010C2A741
:0F22BF00E4900082F0900096F0A3F022C2A722D4
:1024A10090008DEEF0A3EFF0E4A3F07BFF7A1779B3
:0C24B10036900034EEF0A3EFF00208E2D9
:101F0E00EFB40A00506E901F1BF8282873021F3979
:101F1E00021F43021F45021F47021F51021F5B0291
:101F2E001F65021F6F021F79021F79900083E4F074
:101F3E00A3741EF02280028000900083E4F0A3744C
:101F4E003CF022900083E4F0A3745AF022900083B8
:101F5E00E4F0A37478F022900083E4F0A37496F07A
:101F6E0022900083E4F0A374B4F022900083E4F096
:051F7E00A374F0F02245
:10205A009000A4E0B40A00504D90206AF828287332
:10206A0002208802208A02209102209302209A02EA
:10207A00209C0220A30220AA0220AA0220AA8000F1
:10208A009000907401F02280009000907403F02276
:10209A0080009000907405F0229000907408F0225D
:0720AA00900090740CF0227D
:1021BC00900089E0B40234900087E475F0011206B7
:1021CC0024FEC3900084E095F0900083E09E501BA9
:1021DC007BFF7A17794B1208E2E4900089F09000AB
:0C21EC0087F0A3F090008AF012205A2225
:101D7800E490008FF09000A5E0FF700890008DF0CF
:101D8800A3F08052EFB4010C90008D7407F0A30407
:101D9800F0E48042EFB4020D90008D740EF0A3744D
:101DA80010F0E48031EFB4030D90008D741CF0A3A3
:101DB8007420F0E48020EFB4040D90008D7438F0A6
:101DC800A37440F0E4800FEFB4051790008D747091
:101DD800F0A37480F0E4900091F0A3F090008BF0F1
:101DE800A3F07BFF7A17796290008DE0FFA3E09063
:0A1DF8000034CFF0A3EFF00208E280
:10255700E490FE80F0F589758CF2758AFBC28DD206
:06256700A9D28CD2AF22C4
:03000B0002118956
:10118900C0E0C0F0C083C082C0D075D000C000C02C
:1011990001C002C003C004C005C006C00712229FD7
:1011A9001225F1EF600302128290008FE004F0E053
:1011B900C3946450030212A91221BC900095E0B4B3
:1011C900022D900092E004F07006900091E004F086
:1011D900D3900092E09420900091E0941C401090EC
:1011E9000095E4F0900091F0A3F090008504F0D30D
:1011F90090008EE0940090008DE094004048A3E0B8
:1012090024FFF090008DE034FFF0900086E0640246
:101219007060900092E004F07006900091E004F094
:10122900D3900092E09420900091E0941C40439068
:1012390000857401F0A3E4F0900091F0A3F07BFF26
:101249007A17797480299000A5E060267F0112251C
:10125900F790008DE4F0A3F0900091F0A3F09000D6
:1012690086F0900095F01224667BFF7A17797F1239
:1012790008E290008FE4F080279000A1E0B40120FB
:10128900900093E475F001120624FED3E5F094E092
:10129900EE942E400B9000A1E4F0900093F0A3F09F
:1012A900D007D006D005D004D003D002D001D00099
:0B12B900D0D0D082D083D0F0D0E03243
:101FF00090008BE475F001120624FEE5F08EF012DD
:10200000081D201A070820220E10202A1C2020322A
:102010003840203A7080000020597BFF7A17798B76
:10202000801E7BFF7A1779A880167BFF7A1779C309
:10203000800E7BFF7A1779DE80067BFF7A1779F9AD
:1020400090008DE0FFA3E0900034CFF0A3EFF012FA
:0A20500008E2E490008BF0A3F022F8
:0418D3004100B5001B
:102528007E009000B5E0FD7C0012084AE47B64FA66
:07253800F9F81206FA8FDF2B
:01253F002279
:1023E70090FF0074C1F0E490FF9CF0AC06AD077E4F
:1023F7007A7F121205CFEF149000B5F0F5DE75DD88
:0224070097221A
:1024F30090FF017401F090FF03F075B4807F147EA8
:0B2503000012259990FE9B7449F02205
:10256D00E4FFFE75B50143B440E5B430E5FB53B46B
:05257D00DFAEB7AFB6B0
:012582002236
:10258300E4FFFE75B50343B440E5B430E5FB53B453
:05259300DFAEB7AFB69A
:012598002220
:0B12C400900006EBF0A3EAF0A3E9F0B5
:1012CF0090000C1207A600000000E4900010F0F050
:1012DF0090000CE0F8A3E0F9A3E0FAA3E0FB1225DD
:1012EF006DE4FCFDEB2FFFEA3EFEED39FDEC38FC23
:1012FF0090000C12079A900010E004F0E0C39405E0
:10130F0040CE90000CE0FCA3E0FDA3E0FEA3E0FFC5
:10131F00E47B05FAF9F81206FA90000C12079AE42A
:10132F007F887E13FDFC90000CE0F8A3E0F9A3E0AA
:10133F00FAA3E0FB12066FE4FB7A10F9F81206FA33
:10134F00900006E0FBA3E0FAA3E0F9EE8FF012069F
:10135F005090000C1207A600000000E4900010F05F
:10136F0090000CE0F8A3E0F9A3E0FAA3E0FB12254C
:10137F0083E4FCFDEB2FFFEA3EFEED39FDEC38FC7C
:10138F0090000C12079A900010E004F0E0C394054F
:10139F0040CE90000CE0FCA3E0FDA3E0FEA3E0FF35
:1013AF00E47B05FAF9F81206FA90000C12079AE49A
:1013BF007F887E13FDFC90000CE0F8A3E0F9A3E01A
:1013CF00FAA3E0FB12066FE4FB7A10F9F81206FAA3
:1013DF00900009E0FBA3E0FAA3E0F9EE8FF002061C
:0113EF0050AD
:0D25C30075BD17EF75F02BA490FEA0F0225F
:0426080043BD10229C
:100026000203B0E86480F8E933E83360110460F055
:10003600ED33EC337009E8FCE9FDEAFEEBFF220440
:1000460060DED3EB9FEA9EE99DE8C2E78CF0C2F73B
:1000560095F0400CE8CCF8E9CDF9EACEFAEBCFFB07
:1000660012037B85D0F05804700320D5B3E80470E2
:10007600075002B2D50203BA92D5EC0460F7E4CC7D
:10008600C0E0C398F8603B94186008400DD0E0FBD0
:10009600020392E4FBFAC9FC8028E830E406E4C9CE
:1000A600FBE4CAFCE830E305E4C9CACBFCE8540724
:1000B6006010F8C3E913F9EA13FAEB13FBEC13FC2F
:1000C600D8F130F52FC3E49CFCEF9BFFEE9AFEEDD2
:1000D60099FDD0E0FBEF4E4D4C701222DB0302037C
:1000E600B7EC2CFCEF33FFEE33FEED33FDED30E7DE
:1000F600EB020392EF2BFFEE3AFEED39FDD0E0FB6B
:1001060050130BBB00030203BAED13FDEE13FEEF13
:0801160013FFEC13FC0203923D
:10011E00EC4D6011E8497017ED33EC3304600DE4DB
:10012E00FCFFFEFD22E933E8330470F80203B0123F
:10013E00037B58046009E4CC248150062850090240
:10014E0003BA2840030203B7C0E0EB4A7044B980FB
:10015E0006D0E0FB0203A6EF4E701CBD8008EBFF3D
:10016E00EAFEE9FD80EBE98DF0A4FEE5F002020760
:10017E00E9CDF9EAFEEBFFEF89F0A4FCE5F0CE89BC
:10018E00F0A42EFFE435F0CD89F0A42DFEE435F079
:10019E008067EF4E7005BD80D780C3EF8BF0A4ACA7
:1001AE00F0EE8BF0A42CFCE435F0F8EF8AF0A42CE2
:1001BE00E5F038FCE433CB8DF0A42CFCE5F03BF8F5
:1001CE00EE8AF0A42CFCE5F038F8E433CF89F0A4E5
:1001DE002CFCE5F038CF3400CE89F0A42FFFE5F0EB
:1001EE003EFEE433C98DF0A42EFEE5F039CD8AF043
:1001FE00A42FFFE5F03EFEE43DFD33D0E0FB5007BB
:10020E000BBB000F0203BAEC2CFCEF33FFEE33FEF8
:06021E00ED33FD02039226
:100224000203BAEC5D046005E8590470030203B0EC
:1002340012037B580460F6EC4860F2EC7004FDFE97
:10024400FF22C860DB2481C85009C39860025006AD
:100254000203B79850CAF582E9294B4A7005AB826C
:100264000203A675F0007C1A7880C3EF9BEE9AED2A
:1002740099400DC3EF9BFFEE9AFEED99FDE842F025
:10028400DC23ACF0D0E0FFD0E0FED0E0FDAB822078
:10029400E7101BEB60BAEC2CFCEF33FFEE33FEED02
:1002A40033FD020392E803F830E705C0F075F0006F
:1002B400EF2FFFEE33FEED33FD40B830E7C280AAE6
:1002C40074F8CC6480CCC86480C8F58204604FC3E1
:1002D400EB9FF5F0EA9E42F0E99D42F0E89C45F080
:1002E400603C501DE5825FFFE582D313CB5BCBF40A
:1002F4002B5582FB50280ABA002409B90020088033
:100304001DE5825BFBE582D313CF5FCFF4C3132FCC
:100314005582FF50090EBE00050DBD00010CC3EB54
:100324009FF5F0EA9E42F0E99D42F0E89C45F060BA
:0903340007CC4820E701B3EC22DC
:10033D0075F020800E75F010800575F0087D007E3B
:10034D00007F003392D530D50312078CEC3340106B
:10035D00EF33FFEE33FEED33FDEC33FCD5F0ED2244
:0E036D00E5F0247EA2D513CC92E7CDCEFF2280
:10087700E50D2434F582E43400F583E0050D22907C
:100887000031301003900034E475F0011207D702ED
:1008970005772009E97F2ED2098018EF540F24909D
:1008A700D43440D4FF300D0BEF24BFB41A005003EB
:1008B7002461FFE50E6002150E0511E511700205B2
:1008C7001030100E900031E475F0011207D7EF02D7
:1008D70005BD0225FD7403D2108003E4C210F50D97
:1008E7009000311207EEE4F50EF510F511E50E60F4
:1008F700077F201208BA80F5750FFFC20AC209C226
:100907000BC20CC20EC20FC211120886FF700D3047
:1009170010057F001208CBAF11AE1022B4255FC2BD
:10092700D5C20D120886FF24D0B40A00501A75F0FC
:100937000A780E30D50508B6FF0106C6A426F620AC
:10094700D5047002D20C80D924CFB41A00EF50041A
:10095700C2E5D20D020BBDD20A80C6D20980C0D231
:100967000B80BCD2D580BAD20E80B47F201208BAD1
:10097700200B077401B50E0040F1120877FF12082B
:10098700BA0208F4D211D20F8095120877FB120829
:1009970077FA120877F94A4B700679BB7A0C7BFF16
:1009A700200B2EE50E602A7E008E827583001205CD
:1009B7009060060EEE650F70F0C2D5EBC0E0EAC09E
:1009C700E0E9C0E0EE120C1ED0E0F9D0E0FAD0E08A
:1009D700FB120577FF60AAEBC0E0EAC0E0E9C0E0E0
:1009E7001208BAD0E02401F9D0E03400FAD0E0FBD5
:1009F700E50F0460DCD50FD98087D20B80A2120CDB
:100A07000060F7E50F7001041203C5A90F600DE53B
:100A17000F600914F50F120CA8EF60F3EA30E70234
:100A2700F404C3995079EAF4250F0430E701E4048C
:100A3700F50F800D120C0060C1EA050F250F120398
:100A4700C5EA900060F030E701E4250F04D50F04F4
:100A5700200E0114120C1EE4C0E0120CA8900060D6
:100A6700E0601320E70714F01208A2802204F0D0F8
:100A7700E014C0E07F001208A2E50F600712089992
:100A8700150F800B300E03120899D0E00208F4D03E
:100A9700E00480C4120C00609EE50F041203C590A9
:100AA7000060EAF0E50F200E026001042404120C36
:010AB7001E20
:100AB80074FF04C0E0120CA81208A2E50F200E0271
:100AC8006003120899D0E0B50FE87F451208AC9092
:100AD8000060E07F2B30E7047F2DF404C0E01208AB
:100AE800BAD0E075F00A84C0F01208A3D0E012086A
:100AF800A30208F4791080027908C20FC211800895
:100B0800D2D5790A8004790AC2D5E50F047002F5B6
:100B18000FE4FAFDFEFF120877FC7B08200A131287
:100B28000877FD7B1030090A120877FE120877FF54
:100B38007B20EC3382D592D55013C3E43009069F4D
:100B4800FFE49EFEE4200A039DFDE49CFCE4CBF850
:100B5800C20AEC700CCFCECDCCE824F8F870F38044
:100B680017C3EF33FFEE33FEED33FDEC33FCEB330D
:100B7800FB994002FB0FD8E9EB300A05F8D0E0C436
:100B880048B20AC0E00AEC4D4E4F78207B0070C294
:100B9800EAB50F0040BCC0E0120C20D0F0D0E02035
:100BA8000A04C4C0E0C4B20AC0F01208A3D0F0D549
:100BB800F0EB0208F41207F70991530AFC5809628E
:100BC8004C095E420B004F0B08440B084909774358
:100BD8000B0E550A3B460A9B450A05470CDB500994
:100BE800662D096A2E098D2B096E23098B200CC4EA
:100BF8002A09264800000985E50FB4FF03750F068A
:100C0800120877FC120877FD120877FE120877FFA2
:100C1800900059020402790AA2D5200C14300E095A
:100C2800B910020404B9080104A2D5200F0250012A
:100C380004200B68920BB50E005034C0E07F2030C2
:100C48000C197F30A20B720F720E500F120C77C264
:100C58000BC20FC20EC2117F30800F300E03E9C0E5
:100C6800E01208BA300E03D0E0F9D0E0B50ECC306F
:100C78000E177F30B9100C1208BA7F58300D077F55
:100C8800788003B908031208BA300B057F2D0208D3
:100C9800BA7F202011F87F2B200FF322920B80CFF0
:100CA8007F00B40700500B2459F582E43400F58323
:100CB800E0FF22286E756C6C2900D20A1208773082
:100CC8000AF8C20A780E30D50108F60209262D5016
:100CD8004349581208772403B405004001E4900CF6
:100CE800D6931208AB743A1208ABD20C750E0402F4
:020CF8000AFCF4
:10037B00E9D2E7C933E833F892D5EDD2E7CD33ECC8
:07038B0033FC5002B2D52241
:10039200EC30E7100FBF000C0EBE00080DBD0004CC
:1003A2000BEB6014A2D5EB13FCED92E7FD2274FF78
:1003B200FCFDFEFF22E480F8A2D574FF13FC7D80D1
:0303C200E480EFE5
:1003C500F920E73624F950037907E4F42402FBE524
:1003D50082158270021583DBF6E024FB501BE96071
:1003E50014E4F0E582158270021583E004F0B40A86
:0D03F50008E4F0D9EE7401F00A22C2D5220E
:10040200ED33EC3392D5FA602AB4FF33EDC2E77BC9
:10041200FF60067A047927E4227A04793020D50431
:100422007A04792B224E614E002B494E46002D490B
:100432004E4600E47A08F0A3DAFC7B00740722C07F
:1004420083C082ECC0E0EDC0E0EEC0E0EFC0E0EAC5
:1004520075F010A4CAABF075F04DA42BFBE435F097
:10046200FCEA2410FAEB34C5FBEC34D9FCEDC2E70C
:10047200FF75F056A4F42411C5F0F434C58FF0A42E
:100482002AE5F03BE43CF020E714120537D0E0FF08
:10049200D0E0FED0E0FDD0E0FC1202278014F4048C
:1004A200120537D0E0FFD0E0FED0E0FDD0E0FC1234
:1004B200011ED082D083E0FAEDD2E7CD33EC3324B3
:1004C20082FBE4C3CF33CFCE33CECD33CD33DBF398
:1004D2007B0775F00A846004F0A31B0AE5F0F0A321
:1004E2008FF0740AA4FFACF08EF0740AA42CFEAC58
:1004F200F050010C8DF0740AA42CFDE435F0F0A349
:05050200DBDE7407229E
:100507003F8000004120000042C80000447A0000FC
:10051700461C400047C35000497424004B1896807E
:100527004CBEBC205A0E1BCA6753C21C749DC5AE75
:10053700FB60065407601C2323120565EB543860E3
:100547000912055112056012011EECF8EDF9EEFAD9
:10055700EFCB22EB12056080F1543803241C900581
:1005670007FE93FC0EEE93FD0EEE930ECE93FF2245
:101C6E00021BB3E493A3F8E493A34003F68001F2BE
:101C7E0008DFF48029E493A3F85407240CC8C33377
:101C8E00C4540F4420C8834004F456800146F6DF46
:101C9E00E4800B0102040810204080901814E47EAA
:101CAE00019360BCA3FF543F30E509541FFEE4933B
:101CBE00A360010ECF54C025E060A840B8E493A302
:101CCE00FAE493A3F8E493A3C8C582C8CAC583CA2D
:101CDE00F0A3C8C582C8CAC583CADFE9DEE780BEE5
:0118D7000010
:10057700BB010689828A83E0225002E722BBFE0282
:09058700E32289828A83E49322B5
:10059000BB010CE58229F582E5833AF583E0225020
:1005A00006E92582F8E622BBFE06E92582F8E2226A
:0D05B000E58229F582E5833AF583E4932284
:1005BD00BB010689828A83F0225002F722BBFE011D
:0205CD00F32217
:1005CF00BC000BBE0029EF8DF084FFADF022E4CC10
:1005DF00F875F008EF2FFFEE33FEEC33FCEE9DECD9
:1005EF00984005FCEE9DFE0FD5F0E9E4CEFD22ED1F
:1005FF00F8F5F0EE8420D21CFEADF075F008EF2F69
:10060F00FFED33FD4007985006D5F0F222C398FD59
:05061F000FD5F0EA22F6
:10062400C5F0F8A3E028F0C5F0F8E5821582700261
:060634001583E038F022FE
:10063A00A3F8E0C5F025F0F0E58215827002158373
:06064A00E0C838F0E822D0
:10065000BB010A89828A83F0E5F0A3F0225006F7F5
:0F06600009A7F01922BBFE06F3E5F009F31922F2
:10066F00E88FF0A4CC8BF0A42CFCE98EF0A42CFC2A
:10067F008AF0EDA42CFCEA8EF0A4CDA8F08BF0A4A8
:10068F002DCC3825F0FDE98FF0A42CCD35F0FCEB07
:10069F008EF0A4FEA9F0EB8FF0A4CFC5F02ECD39CC
:0F06AF00FEE43CFCEAA42DCE35F0FDE43CFC2239
:1006BE0075F008758200EF2FFFEE33FECD33CDCCF3
:1006CE0033CCC58233C5829BED9AEC99E582984076
:1006DE000CF582EE9BFEED9AFDEC99FC0FD5F0D653
:1006EE00E4CEFBE4CDFAE4CCF9A88222B800C1B97D
:1006FE000059BA002DEC8BF084CFCECDFCE5F0CBBB
:10070E00F97818EF2FFFEE33FEED33FDEC33FCEBF3
:10071E0033FB10D703994004EB99FB0FD8E5E4F9AE
:10072E00FA227818EF2FFFEE33FEED33FDEC33FC9B
:10073E00C933C910D7059BE99A4007EC9BFCE99A8F
:10074E00F90FD8E0E4C9FAE4CCFB2275F010EF2FD4
:10075E00FFEE33FEED33FDCC33CCC833C810D707D4
:10076E009BEC9AE899400AED9BFDEC9AFCE899F80F
:0E077E000FD5F0DAE4CDFBE4CCFAE4C8F922A2
:0E078C00C3E49FFFE49EFEE49DFDE49CFC227E
:0C079A00ECF0A3EDF0A3EEF0A3EFF022D2
:1007A600A8828583F0D083D0821207BD1207BD12BE
:1007B60007BD1207BDE473E493A3C583C5F0C583E3
:1007C600C8C582C8F0A3C583C5F0C583C8C582C89D
:0107D6002200
:1007D700F8E0FBA3A3E0F925F0F0E58215827002AB
:0707E7001583E0FA38F0224F
:0907EE00EBF0A3EAF0A3E9F0220C
:1007F700D083D082F8E4937012740193700DA3A391
:1008070093F8740193F5828883E4737402936860A4
:06081700EFA3A3A380DFA4
:10081D00D083D082F8E4937012740193700DA3A36A
:10082D0093F8740193F5828883E473740293B5F0A1
:0D083D00067403936860E9A3A3A3A380D809
:10084A00EC8EF0A4CCC5F0CCCDF8EFA4CEC5F02D3B
:10085A00FDE43CFCE8A42EC8C5F03DFDE43CFCEFF9
:0D086A00A4FFE5F028FEE43DFDE43CFC2287
:00000001FF
