:03000000021D4599
:0C1D4500787FE4F6D8FD758122021D8C29
:101C2300206B65795F7363616E0D0A000D0A3D3D9C
:101C33003D3D3D3D3D3D3D3D3D3D3D3D3D3D3D3DD1
:101C43003D3D3D3D3D3D3D3D3D3D3D3D3D3D3D3DC1
:101C53000D0A00736B753A4B2564200D0A00736FF0
:101C630066742076657273696F6E3A2573200D0A68
:101C730000312E30312E3030006761702025642012
:101C83000D0A0074696D6572202564200D0A003DFC
:101C93003D3D3D3D3D3D3D3D3D3D3D3D3D3D3D3D71
:101CA3003D3D3D3D3D3D3D3D3D3D3D3D3D3D3D3D61
:041CB3003D0D0A00D9
:1017B1004200B500004200B200004100B800410003
:0A17C100B4004100B7004100B10080
:10000E00758E5390FE917401F090FF027410F022E1
:10144300E4900000F09000B4E0700A121EDE9000F9
:1014530000EFF08005E4900000F0900000E06401EC
:1014630070699000A4E070637BFF7A1C79231208F3
:10147300E2122724EF70107F0112272A12257BE442
:101483009000A5F00227031226CEE4FF12272A12AA
:101493001F619000A7E0FFD394034016A3E0FE7002
:1014A300059000968009EED394034006900086745D
:1014B30002F09000B87401F0121CB79000A7E0FF8F
:1014C3001210729000A8E0FF021DD1122724EF60D2
:1014D3000302157E900000E0B404031226CE9000B0
:1014E30000E06402704A1226CE9000A7E0C394097C
:1014F3005005E004F080069000A77401F09000A767
:10150300E0FFD394034016A3E0FE7005900096809D
:1015130009EED3940340069000867402F09000B85D
:101523007401F0121CB79000A7E0FF1210728048FC
:10153300900000E0640370431226CE9000A8E0C33D
:1015430094055005E004F08005E49000A8F09000B5
:10155300A7E0D394034016A3E0FF700590009680A4
:1015630009EFD3940340069000867402F09000A81C
:0B157300E0FF121DD1121F6112245076
:01157E00224A
:08189000900006EEF0A3EFF05A
:10189800900081E06402706A9000A4E064017062C4
:1018A800900006A3E0FFE4900081F09000AB04F004
:1018B800900062E0FED3940F4048EED39F400CE0C6
:1018C8009F9000A9F0A37401F08016900062E0FEDA
:1018D800C3EF9EFF9000A9F01226F79000AA7402A9
:1018E800F09000A9E0FFC394024006EFD39414409F
:1018F80007E49000A9F0A3F01224507D027F0212A1
:10190800251F9000AAE0FDB401149000A9E0FF7E15
:1019180000900006EE8FF0120624AFF0FE22EDB420
:1019280002189000A9E0FFC3900007E09FFF900015
:1019380006E09400FEF0A3EFF022900006E0FEA37C
:02194800E0FFBE
:01194A00227A
:100CFA00900008ECF0A3EDF0900006EEF0FAA3EFF6
:020D0A00F0FBFC
:100D0C00E490000AF0A37432F0A3740AF0A3120763
:100D1C00A600000000C3EB9432EA94004016900049
:100D2C0008E0FEA3E0FF900006E0FCA3E0FDD39FEB
:100D3C00EC9E4003020DD3E4120342E4FBFA797AF1
:100D4C007844120227C004C005C006C007900008F2
:100D5C00E0FCA3E0FDE4120342E4FBFA797A784468
:100D6C00120227D003D002D001D000120029C004F7
:100D7C00C005C006C007900006E0FCA3E0FDE4122D
:100D8C000342E4FBFA797A7844120227E4FBFA79FD
:100D9C00FF7843120227A804A905AA06AB07D007BF
:100DAC00D006D005D00412022790000D12079AE449
:100DBC00FFFEFDFC90000DE0F8A3E0F9A3E0FAA320
:100DCC00E0FB1202C450057E007FFF2290000DE074
:100DDC00FCA3E0FDA3E0FEA3E0FF7BF67A28799C60
:100DEC00784012022790000D12079AE4FFFE7D92C4
:100DFC007C4290000DE0F8A3E0F9A3E0FAA3E0FB3D
:100E0C001202C45004E4FEFF2290000DE0FCA3E0AB
:100E1C00FDA3E0FEA3E0FF7BF37A1F79B6784212C4
:100E2C00022790000D12079A7FF37E1F7DB67C423D
:100E3C0090000DE0F8A3E0F9A3E0FAA3E0FB1201A7
:100E4C001E7BF37A1F79B678421202C4504C900084
:100E5C000DE0FCA3E0FDA3E0FEA3E0FF7B497A9D3F
:100E6C007980783F12022790000D12079A90000AA1
:100E7C00E004F0E4FFFE7D807C3F90000DE0F8A3E1
:100E8C00E0F9A3E0FAA3E0FB1202C4600250BF90A9
:100E9C00000AE0FFA3E02FF0804E90000DE0FCA3D1
:100EAC00E0FDA3E0FEA3E0FF7B6D7AC5797E783F81
:100EBC0012022790000D12079A90000AE004F0E449
:100ECC00FFFE7D807C3F90000DE0F8A3E0F9A3E0ED
:100EDC00FAA3E0FB1202C440C190000BE0FF9000AB
:100EEC000AE0FEC3EF9EA3F09000B7E0B401057ECC
:0B0EFC00007FFE2290000BE0FF7E0054
:010F070022C7
:100F0800E4900000F0A3F0A3F0A3F0A3F0A3F09006
:100F180000B6E004F070069000B5E004F0D390004D
:100F2800B6E094109000B5E094275003021071E4E5
:100F3800F0A3F07B0190000904F0A37400F0A374FF
:100F480004F07A00790212157F900002E0FEA3E017
:100F5800FFA3E0FCA3E0FD120CFA900000EEF0A362
:100F6800EFF0121890900000EEF0A3EFF012268D2B
:100F78009000B2EEF0A3EFF0D3900003E09432902B
:100F88000002E09400500302102C9000B7E06003C8
:100F980002102C122724EF70579000B8E0B40133E8
:100FA800E4F0D3900001E09432900000E0940090C7
:100FB800008A74024009F09000917405F08014F0E2
:100FC8009000A2E4F0A3740EF090008B7401F090EE
:100FD8000091F09000A8E0FF121DD19000A7E0FF5B
:100FE800121072900000E0FEA3E0FF121E5B802E3C
:100FF8009000A4E0B40118E49000A5F012257B90BD
:1010080000A7E0FF1210729000BD7401F0800FE499
:101018009000A5F07F041225D1E49000BDF0E49083
:1010280000B4F0229000B7E070179000A4F0900090
:10103800BDF012257BE49000A5F09000B174FF800C
:101048001D9000B7E0B40121E49000A4F09000BD29
:10105800F012257BE49000A5F09000B174FEF0FF3B
:091068001210729000B47401F042
:01107100225C
:101B700012000E1223D812253ED2AF12259912263A
:101B80004B1213041226CE1224297F207E03122624
:101B90001E12257B7F081210727F021226EA900027
:101BA000A57401F01224FF7BFF7A1C792F1208E242
:101BB0007BFF7A1C79569000347423F0A37444F0B0
:101BC0001208E290003474FFF0A3741CF0A3747444
:101BD000F07BFF7A1C79611208E27BFF7A1C797C2A
:101BE0009000A7E0FF900034E4F0A3EFF01208E2C9
:101BF0007BFF7A1C79869000A8E0FF900034E4F027
:101C0000A3EFF01208E27BFF7A1C79921208E2122D
:101C10001443120F081225EC1221EA12263512275E
:031C20003B80EC1A
:1022E400900006EEF0A3EFF0C3E09D900006E09CA2
:1022F4005006E49000A5F022900091E0FFC3900006
:1023040007E09FFF900006E09400FEC3ED9FEC9E63
:0923140050069000A57401F022AE
:101E5B0090008BE0B40102806E9000A7E0B40A0002
:101E6B005070901E74F8282873021E92021E9A025C
:101E7B001EA2021EAA021EB2021EBA021EC2021E1F
:101E8B00CA021ECA021ED2AD07AC067F1E803EAD33
:101E9B0007AC067F288036AD07AC067F2B802EADB6
:101EAB0007AC067F2F8026AD07AC067F36801EADB4
:101EBB0007AC067F3C8016AD07AC067F41800EADAC
:101ECB0007AC067F468006AD07AC067F4D7E001241
:031EDB0022E422DC
:1024DF00900085E0B401189000A7E0D39403400F5B
:1024EF007403F0FF121072122450E4900085F02252
:10263500D39000B3E094E89000B2E0940340069094
:0626450000B77401F02251
:1016AB000D0A3D3D3D3D3D3D3D3D3D3D3D3D3D3DC2
:1016BB003D3D3D3D3D3D3D3D3D3D3D3D3D3D3D3D4F
:1016CB003D3D3D3D3D3D3D3D3D3D0D0A00706F7740
:1016DB006572206F6E20666C617368206761703A6B
:1016EB002564202074696D65723A2564200D0A000B
:1016FB00706F776572206F6E20666C6173682076F1
:10170B00616C75653A256420207369676E3A2564B0
:10171B00200D0A003D3D3D3D3D3D3D3D3D3D3D3DAB
:10172B003D3D3D3D3D3D3D3D3D3D3D3D3D3D3D3DDE
:10173B003D3D3D3D3D3D3D3D3D3D3D3D0D0A003D6E
:10174B003D3D3D3D3D3D3D3D3D3D3D3D66697273FE
:10175B007420696E697420646174613D3D3D3D3D4B
:10176B003D3D3D3D3D3D200D0A0030782530345840
:10177B0020203078253034582020307825303458CC
:10178B002020307825303458200D0A00666C6173A8
:10179B0068206761703A2564202074696D65723A20
:0617AB002564200D0A0078
:1017CB004500A700000000004400AC2020050141AB
:0317DB0000B0015A
:062724009000B0E0FF226E
:06272A009000B0EFF02268
:10249B00D310AF01C3C0D075FDF075FC0F8EFA8F52
:1024AB00F975FDD275FC2D75FDE175FC1ED0D09232
:0224BB00AF224E
:10240100D310AF01C3C0D08FFB75FDF075FC0FAECB
:1024110004AF058EFA8FF975FDB475FC4B75FDE1BE
:0824210075FC1ED0D092AF2221
:0C1FD4007B017A0079A77D057F047E3C2C
:101FE000D310AF01C3C0D0900008EEF0A3EFF0A370
:0B1FF000EDF0A3EBF0A3EAF0A3E9F092
:101FFB00E4A3F0C2AFF090000AE0FF90000EE0C344
:10200B009F502C90000BE0FBA3E475F00112063AF5
:10201B00A9F0FA120577FF900008E475F00112069B
:10202B003AADF0FC12240190000EE004F080C7D210
:01203B00AFF5
:05203C00D0D092AF229C
:040003008F828E83D7
:03000700E493FF80
:01000A0022D3
:1021AA00900008EEF0A3EFF0A3EBF0A3EAF0A3E9A6
:1021BA00F0AF051DEF6028900008E475F0011206E3
:1021CA003A85F082F583E493FF90000AE0FBA3E4EA
:1021DA0075F00112063AA9F0FAEF1205BD80D22273
:10231D00E4FDFCED2400FFE4343CFE12000374AC3C
:10232D002DF582E43400F583E0B507030C80037FBF
:10233D0000220DEDB404DCECC3940440037F0122B4
:02234D007F000F
:01234F00226B
:10130400E4900000F090FE927404F012231DEF703C
:101314000790000004F0807C7BFF7A1679AB1208FA
:10132400E27B017A0079A77D057F047E3C1221AA25
:101334007BFF7A1679D89000A7E0FF900034E4F0A0
:10134400A3EFF09000A8E0FF900036E4F0A3EFF0E4
:101354001208E27BFF7A1679FB9000A9E0FF900067
:1013640034E4F0A3EFF09000AAE0FF900036E4F03C
:10137400A3EFF01208E27BFF7A17791F1208E290BC
:1013840000A7E0D394095006A3E09405400690001A
:10139400007401F0900000E0640160030214207BFB
:1013A400FF7A17794A1208E29000A77401F0A37437
:1013B40003F07F007E3C12249B7B017A0079AC7D94
:1013C40004121FE0121FD47B017A0079AC7D047FE4
:1013D400007E3C1221AA7BFF7A1779759000ACE05D
:1013E400FF900034E4F0A3EFF09000ADE0FF900034
:1013F40036E4F0A3EFF09000AEE0FF900038E4F0A4
:10140400A3EFF09000AFE0FF90003AE4F0A3EFF018
:101414001208E27BFF7A17791F1208E27BFF7A1722
:1014240079979000A7E0FF900034E4F0A3EFF090E8
:0F14340000A8E0FF900036E4F0A3EFF00208E21A
:102450007F047E3C12249B7B017A0079AC7D047F53
:1024600000121FE0121FD47B017A0079A77D057F3F
:06247000047E3C0221AADB
:0E26B200EF1F70011E144E6004000080F32222
:10261E007DA07C01ED1D70011C144C70F7EF1F7036
:06262E00011E144E70EACB
:012634002283
:03273F000226B2BD
:1025B60090FF0974C1F090FF08F090FF07F090FFBC
:0B25C60006F0D291D290D287D286227C
:08222A00900034EFF0A3EDF089
:10223200E4A3F0F0900035E0FFA3E0C39F5027C273
:1022420087900034E020E704C2868002D286D287DB
:102252007F057E0012273F900034E025E0F09000D9
:0622620036E004F080CE1E
:012268002253
:08226900900034EFF0A3EDF04A
:10227100E4A3F0F0900035E0FFA3E0C39F5027C234
:1022810087900034E020E004C2868002D286D287A3
:102291007F057E0012273F900034E0C313F09000C9
:0622A10036E004F080CEDF
:0122A7002214
:1025D100900007EFF0C2917D047F8012222A9000C3
:0B25E10007E0FF7D0812222AD29122A1
:1023AC00900032EFF0A3EDF0C2917D037FA01222DA
:1023BC002A900032E025E025E0FF7D0612222A90CB
:0C23CC000033E0FF7D04122269D2912250
:09271B00D291D290D287D286221D
:0817DE004100BC004100BD0008
:05001E007F060225D160
:052736007F040225D123
:10255D00E4900000F0F0900000E0FFC39420500DD7
:0D256D007D0F1223AC900000E004F080E927
:01257A00223E
:10257B00E4900031F0F0900031E0FFC39420500D57
:0D258B00E4FD1223AC900031E004F080E983
:012598002220
:102429001225B67F521225D17F301225D17F0A128B
:1024390025D17F081225D17F021225D17F061225C9
:07244900D112257B02255D85
:0E26C000E4FD7F1C1223ACE4FD7F1F0223AC5F
:101DD100900006EFF07F061225D1E4FD7F1F12234C
:101DE100ACE4FD7F1C1223AC900006E014601B14D0
:101DF100602314602B14603A1460492405705A7DE5
:101E01000A7F1B1223AC7D0E80317D0B7F1B1223B9
:101E1100AC7D0A80267D0E7F1B1223AC7D0A801BC0
:101E21007D0A7F1B1223AC7D0A7F1C1223AC7D0B24
:101E310080227D0A7F1B1223AC7D0B7F1C1223ACF9
:101E41007D0A80107D0A7F1B1223AC7D0A7F1C1244
:0A1E510023AC7D0E7F1F1223AC228C
:10107200900006EFF07F061225D1E4FD7F1D1223BA
:10108200ACE4FD7F1E1223AC9000BDE06401701F32
:101092009000BCE070117D067F1D1223AC7D0E7F97
:1010A2001E1223AC0211A5E49000BCF002117A904A
:1010B2000006E0B401047D068063900006E0B402FD
:1010C2000B7D0B7F1D1223AC7D0C8066900006E029
:1010D200B4030B7D0F7F1D1223AC7D04805490005E
:1010E20006E0B4040B7D067F1D1223AC7D06804210
:1010F200900006E0B4050B7D0D7F1D1223AC7D062A
:101102008030900006E0B4060B7D0D7F1D1223ACEB
:101112007D0E801E900006E0B407077D077F1D024A
:1011220011BF900006E0B4080E7D0F7F1D1223ACA4
:101132007D0E7F1E0211BF900006E0B4090D7D0FE7
:101142007F1D1223AC7D067F1E8072900006E0F4A4
:1011520070329000BCE070177D017F1D1223AC7DC0
:101162000E7F1E1223AC9000BC7401F00226CEE466
:101172009000BCF0122703E4FD7F1C1223ACE4FDB7
:101182007F1F8039900006E064FE70349000BCE05E
:1011920070187D097F1D1223AC7D0E7F1E1223ACB9
:1011A2001226CE9000BC7401F022E49000BCF01232
:1011B2002703E4FD7F1C1223ACE4FD7F1F1223AC46
:0111C200220A
:1017E6005E00630000000000000000000000000032
:1017F60000000000000000000000000000000000E3
:0918060000410081004100620074
:1023D80090FF0E74C1F090FF0F7461F090FFA0742D
:1023E80016F090FFA104F075CEFF75CDE675CC060A
:0923F800759E02759810D2AC220A
:0C26F700C2AC8F993099FDC299D2AC2280
:032742000226F775
:0B237F0090000DEBF0A3EAF0A3E9F0E2
:10238A00E4FEEEC39D501A90000DE0FBA3E0FAA311
:10239A00E0F98E82758300120590FF1227420E80A3
:0123AA00E151
:0123AB00220F
:10251F009000087455F0A3EFF0A3EDF0A3740DF045
:0F252F00A3740AF07B017A0079087D0502237FEF
:06273000AE071226F7229D
:0300230002215D5A
:0D215D00C0E0C083C082C0D075D000C007B4
:10216A00E59830E030AF995398FE900081E0146012
:10217A0019047021EFB4551D900063F0900061E0DE
:10218A0004F09000817401F0800B900062EFF090EF
:05219A0000817402F059
:0B219F00D007D0D0D082D083D0E03237
:10180F004100A4004100A6004100A5004200A20033
:10181F0013420099000041009B0042009C000041D0
:0C182F00009E0042009F00004100A1014B
:1025990090FF1D7461F090FF15F090FF16F090FF09
:0D25A90002F090FF1774C1F090FF00F022C7
:1025EC002082099000A6E0700304F0229000A6E07F
:0A25FC00B401063082037402F022DD
:1021EA009000A5E064017035A3E0B4023290009932
:1021FA00E475F001120624FEC39000A3E095F09066
:10220A0000A2E09E5019E4900099F0A3F0D2807FDA
:0F221A0003FE12261EC280E49000A6F022C280AE
:012229002292
:10194B00E4900002F0A2A533900001F090009BE020
:10195B0014602614604E1470030219EE2403600306
:10196B000219F7900001E060030219FC90009CF053
:10197B00A3F090009B04F08078900001E0706B90D6
:10198B00009DE004F0700690009CE004F0C3900012
:10199B009DE0940390009CE09400403E90009B746B
:1019AB0002F08036900001E0B40106A37404F080CD
:1019BB003B90009DE004F0700690009CE004F0C3A7
:1019CB0090009DE0947890009CE09400400C900077
:1019DB00027405F090009B7403F07F0A7E001226C0
:1019EB001E800E900001E0B401078000E490009B84
:0619FB00F0900002E0FF85
:011A010022C2
:101A0200E4900002F0A2A633900001F090009EE064
:101A120014602614604E147003021AA52403600396
:101A2200021AAE900001E06003021AB390009FF028
:101A3200A3F090009E04F08078900001E0706B901B
:101A420000A0E004F0700690009FE004F0C3900054
:101A5200A0E0940390009FE09400403E90009E74AA
:101A620002F08036900001E0B40106A37404F08015
:101A72003B9000A0E004F0700690009FE004F0C3E9
:101A82009000A0E094F090009FE09400400C900041
:101A9200027406F090009E7403F07F0A7E00122604
:101AA2001E800E900001E0B401078000E490009EC9
:061AB200F0900002E0FFCD
:011AB800220B
:101EDE0012194BBF05037F01229000A1E060122072
:101EEE00A50F7F327E0012261EE49000A1F07F0423
:101EFE0022121A02BF0621122724BF01149000AB32
:101F0E00E0700E9000A404F09000ABF0122450800C
:101F1E003FE49000A4F080389000A1E0602330A64A
:101F2E000320B51D9000A4E070177F32FE12261E0E
:101F3E00E49000A1F020A6037F032220B5127F02B9
:101F4E002230A60C30B50930A5069000A17401F020
:021F5E007F0002
:011F6000225E
:101AB90065786368616E67655F686561745F7661A3
:101AC9006C7565200D0A0070726F74656374200D62
:101AD9000A0074696D65206F6666200D0A007469D5
:101AE9006D655F746F5F302E3548202074696D65B0
:101AF9005F7365633D2564200D0A0074696D655F38
:101B0900746F5F3148202074696D655F7365633D4B
:101B19002564200D0A0074696D655F746F5F324832
:101B2900202074696D655F7365633D2564200D0A26
:101B39000074696D655F746F5F3448202074696D46
:101B4900655F7365633D2564200D0A0074696D65E1
:101B59005F746F5F3848202074696D655F736563D2
:071B69003D2564200D0A0078
:10183B004100900042008E000042009200004100E7
:10184B008500410086004100960041009100410057
:10185B008A00420088000042008C00004200830096
:10186B000041008B004200940000420097000041B1
:07187B00008200410087001C
:0E26CE009000827401F0E4900097F0A3F022D7
:0C270300E4900082F0900097F0A3F02218
:10235000900082E0B40125D2A7900097E475F001C7
:10236000120624FED3E5F0942CEE94014010C2A78F
:0F237000E4900082F0900097F0A3F022C2A72221
:0C270F0090008EEEF0A3EFF0E4A3F022A7
:101CB700EFB40A004003021D44901CC7F82828739C
:101CC700021CE5021CEF021CF9021D03021D0E0295
:101CD7001D19021D24021D2F021D3A021D3A9000F4
:101CE70083E4F0A3741EF022900083E4F0A37496BB
:101CF700F022900083E4F0A374F0F0229000837444
:101D070001F0A3742CF0229000837401F0A374688F
:101D1700F0229000837401F0A374A4F02290008352
:101D27007402F0A37494F0229000837403F0A374F8
:0E1D3700FCF0229000837406F0A37454F02296
:1020AB009000A2E4F0A37413F09000A7E0B40A0030
:1020BB00504A9020C4F82828730220E20220E40240
:1020CB0020E60220E80220EF0220F60220F8022090
:1020DB00FA0221010221018004800280009000910C
:1020EB007401F0229000917403F022800280009022
:0D20FB0000917405F0229000917408F0220D
:1022A80090008AE0B40234900088E475F0011206C8
:1022B80024FEC3900084E095F0900083E09E501BBC
:1022C8007BFF7A1A79B91208E2E490008AF090004C
:0C22D80088F0A3F090008BF01220AB22E5
:101F6100E4900090F09000A8E0FF700890008EF0DF
:101F7100A3F08052EFB4010C90008E7407F0A3041B
:101F8100F0E48042EFB4020D90008E740EF0A37461
:101F910010F0E48031EFB4030D90008E741CF0A3B7
:101FA1007420F0E48020EFB4040D90008E7438F0BA
:101FB100A37440F0E4800FEFB4051790008E7470A5
:101FC100F0A37480F0E4900092F0A3F090008CF004
:031FD100A3F02258
:10264B00E490FE80F0F589758CF2758AFBC28DD211
:06265B00A9D28CD2AF22CF
:03000B000211C31C
:1011C300C0E0C0F0C083C082C0D075D000C000C0F2
:1011D30001C002C003C004C005C006C007122350EB
:1011E300122724EF60030212BC900090E004F0E0A9
:1011F300C3946450030212E31222A8900096E0B451
:10120300022D900093E004F07006900092E004F049
:10121300D3900093E09420900092E0941C401090AF
:101223000096E4F0900092F0A3F090008504F0D3D0
:1012330090008FE0940090008EE094004048A3E07B
:1012430024FFF090008EE034FFF0900086E064020B
:101253007060900093E004F07006900092E004F058
:10126300D3900093E09420900092E0941C4043902C
:1012730000857401F0A3E4F0900092F0A3F07BFFEB
:101283007A1A79D080299000A8E060267F0112277E
:101293002A90008EE4F0A3F0900092F0A3F0900067
:1012A30086F0900096F012257B7BFF7A1A79DB1289
:1012B30008E2900090E4F080279000A4E0B40120BD
:1012C300900094E475F001120624FED3E5F094E057
:1012D300EE942E400B9000A4E4F0900094F0A3F061
:1012E3009000877401F0D007D006D005D004D00356
:1012F300D002D001D000D0D0D082D083D0F0D0E0C3
:0113030032B7
:1020410090008CE475F001120624FEE5F08EF0128A
:10205100081D206B070820730E10207B1C20208395
:102061003840208B7080000020AA7BFF7A1A79E724
:10207100801E7BFF7A1B790480167BFF7A1B791FF8
:10208100800E7BFF7A1B793A80067BFF7A1B79559C
:1020910090008EE0FFA3E0900034CFF0A3EFF012A8
:0A20A10008E2E490008CF0A3F022A6
:041882004100BE0063
:102606007E009000BEE0FD7C0012084AE47B64FA7E
:07261600F9F81206FA8FDF4C
:01261D00229A
:1024BD0090FF0074C1F0E490FF9CF0AC06AD077E78
:1024CD007A7F121205CFEF149000BEF0F5DE75DDA8
:0224DD00972244
:10253E0090FF017401F090FF03F090FF11F075B45D
:0F254E00807F147E001226B290FE9B7449F0220B
:10266100E4FFFE75B50143B440E5B430E5FB53B476
:05267100DFAEB7AFB6BB
:012676002241
:10267700E4FFFE75B50343B440E5B430E5FB53B45E
:05268700DFAEB7AFB6A5
:01268C00222B
:10268D00E4FFFE75B50943B440E5B430E5FB53B442
:05269D00DFAEB7AFB68F
:0126A2002215
:0B157F00900006EBF0A3EAF0A3E9F0F7
:10158A0090000C1207A600000000E4900010F0F092
:10159A0090000CE0F8A3E0F9A3E0FAA3E0FB12261E
:1015AA0061E4FCFDEB2FFFEA3EFEED39FDEC38FC71
:1015BA0090000C12079A900010E004F0E0C3940522
:1015CA0040CE90000CE0FCA3E0FDA3E0FEA3E0FF08
:1015DA00E47B05FAF9F81206FA90000C12079AE46D
:1015EA007F887E13FDFC90000CE0F8A3E0F9A3E0ED
:1015FA00FAA3E0FB12066FE4FB7A10F9F81206FA76
:10160A00900006E0FBA3E0FAA3E0F9EE8FF01206E1
:10161A005090000C1207A600000000E4900010F0A1
:10162A0090000CE0F8A3E0F9A3E0FAA3E0FB12268D
:10163A0077E4FCFDEB2FFFEA3EFEED39FDEC38FCCA
:10164A0090000C12079A900010E004F0E0C3940591
:10165A0040CE90000CE0FCA3E0FDA3E0FEA3E0FF77
:10166A00E47B05FAF9F81206FA90000C12079AE4DC
:10167A007F887E13FDFC90000CE0F8A3E0F9A3E05C
:10168A00FAA3E0FB12066FE4FB7A10F9F81206FAE5
:10169A00900009E0FBA3E0FAA3E0F9EE8FF002065E
:0116AA0050EF
:0D26EA0075BD17EF75F02BA490FEA0F02237
:04273B0043BD102268
:102476002050524F44554354455F4552524F520DDA
:102486000A0020454E5445525F544553545F4D4F04
:0524960044450D0A00A1
:091886004100B9004200BA000063
:0F26A30090FF107461F090FF1274C1F0D2A22268
:0D26DC00E4FF1226A320A0030F80027F025E
:0126E90022CE
:102108009000B9E024FE604A146042240370452020
:10211800A51120A50E20A50B9000B97403F0E4A327
:10212800F0A3F09000BAE475F001120624FEC3E5AE
:10213800F09410EE9427401C7BFF7A2479761208DD
:10214800E29000B97402F0E4A3F0A3F022D2A7C28F
:05215800A222D2A22228
:1024FF001226DCBF01197BFF7A2479881208E2D2F9
:10250F00A71221081225EC1221EA12273B80F22292
:100026000203B0E86480F8E933E83360110460F055
:10003600ED33EC337009E8FCE9FDEAFEEBFF220440
:1000460060DED3EB9FEA9EE99DE8C2E78CF0C2F73B
:1000560095F0400CE8CCF8E9CDF9EACEFAEBCFFB07
:1000660012037B85D0F05804700320D5B3E80470E2
:10007600075002B2D50203BA92D5EC0460F7E4CC7D
:10008600C0E0C398F8603B94186008400DD0E0FBD0
:10009600020392E4FBFAC9FC8028E830E406E4C9CE
:1000A600FBE4CAFCE830E305E4C9CACBFCE8540724
:1000B6006010F8C3E913F9EA13FAEB13FBEC13FC2F
:1000C600D8F130F52FC3E49CFCEF9BFFEE9AFEEDD2
:1000D60099FDD0E0FBEF4E4D4C701222DB0302037C
:1000E600B7EC2CFCEF33FFEE33FEED33FDED30E7DE
:1000F600EB020392EF2BFFEE3AFEED39FDD0E0FB6B
:1001060050130BBB00030203BAED13FDEE13FEEF13
:0801160013FFEC13FC0203923D
:10011E00EC4D6011E8497017ED33EC3304600DE4DB
:10012E00FCFFFEFD22E933E8330470F80203B0123F
:10013E00037B58046009E4CC248150062850090240
:10014E0003BA2840030203B7C0E0EB4A7044B980FB
:10015E0006D0E0FB0203A6EF4E701CBD8008EBFF3D
:10016E00EAFEE9FD80EBE98DF0A4FEE5F002020760
:10017E00E9CDF9EAFEEBFFEF89F0A4FCE5F0CE89BC
:10018E00F0A42EFFE435F0CD89F0A42DFEE435F079
:10019E008067EF4E7005BD80D780C3EF8BF0A4ACA7
:1001AE00F0EE8BF0A42CFCE435F0F8EF8AF0A42CE2
:1001BE00E5F038FCE433CB8DF0A42CFCE5F03BF8F5
:1001CE00EE8AF0A42CFCE5F038F8E433CF89F0A4E5
:1001DE002CFCE5F038CF3400CE89F0A42FFFE5F0EB
:1001EE003EFEE433C98DF0A42EFEE5F039CD8AF043
:1001FE00A42FFFE5F03EFEE43DFD33D0E0FB5007BB
:10020E000BBB000F0203BAEC2CFCEF33FFEE33FEF8
:06021E00ED33FD02039226
:100224000203BAEC5D046005E8590470030203B0EC
:1002340012037B580460F6EC4860F2EC7004FDFE97
:10024400FF22C860DB2481C85009C39860025006AD
:100254000203B79850CAF582E9294B4A7005AB826C
:100264000203A675F0007C1A7880C3EF9BEE9AED2A
:1002740099400DC3EF9BFFEE9AFEED99FDE842F025
:10028400DC23ACF0D0E0FFD0E0FED0E0FDAB822078
:10029400E7101BEB60BAEC2CFCEF33FFEE33FEED02
:1002A40033FD020392E803F830E705C0F075F0006F
:1002B400EF2FFFEE33FEED33FD40B830E7C280AAE6
:1002C40074F8CC6480CCC86480C8F58204604FC3E1
:1002D400EB9FF5F0EA9E42F0E99D42F0E89C45F080
:1002E400603C501DE5825FFFE582D313CB5BCBF40A
:1002F4002B5582FB50280ABA002409B90020088033
:100304001DE5825BFBE582D313CF5FCFF4C3132FCC
:100314005582FF50090EBE00050DBD00010CC3EB54
:100324009FF5F0EA9E42F0E99D42F0E89C45F060BA
:0903340007CC4820E701B3EC22DC
:10033D0075F020800E75F010800575F0087D007E3B
:10034D00007F003392D530D50312078CEC3340106B
:10035D00EF33FFEE33FEED33FDEC33FCD5F0ED2244
:0E036D00E5F0247EA2D513CC92E7CDCEFF2280
:10087700E50D2434F582E43400F583E0050D22907C
:100887000031301003900034E475F0011207D702ED
:1008970005772009E97F2ED2098018EF540F24909D
:1008A700D43440D4FF300D0BEF24BFB41A005003EB
:1008B7002461FFE50E6002150E0511E511700205B2
:1008C7001030100E900031E475F0011207D7EF02D7
:1008D70005BD0227307403D2108003E4C210F50D62
:1008E7009000311207EEE4F50EF510F511E50E60F4
:1008F700077F201208BA80F5750FFFC20AC209C226
:100907000BC20CC20EC20FC211120886FF700D3047
:1009170010057F001208CBAF11AE1022B4255FC2BD
:10092700D5C20D120886FF24D0B40A00501A75F0FC
:100937000A780E30D50508B6FF0106C6A426F620AC
:10094700D5047002D20C80D924CFB41A00EF50041A
:10095700C2E5D20D020BBDD20A80C6D20980C0D231
:100967000B80BCD2D580BAD20E80B47F201208BAD1
:10097700200B077401B50E0040F1120877FF12082B
:10098700BA0208F4D211D20F8095120877FB120829
:1009970077FA120877F94A4B700679BB7A0C7BFF16
:1009A700200B2EE50E602A7E008E827583001205CD
:1009B7009060060EEE650F70F0C2D5EBC0E0EAC09E
:1009C700E0E9C0E0EE120C1ED0E0F9D0E0FAD0E08A
:1009D700FB120577FF60AAEBC0E0EAC0E0E9C0E0E0
:1009E7001208BAD0E02401F9D0E03400FAD0E0FBD5
:1009F700E50F0460DCD50FD98087D20B80A2120CDB
:100A07000060F7E50F7001041203C5A90F600DE53B
:100A17000F600914F50F120CA8EF60F3EA30E70234
:100A2700F404C3995079EAF4250F0430E701E4048C
:100A3700F50F800D120C0060C1EA050F250F120398
:100A4700C5EA900060F030E701E4250F04D50F04F4
:100A5700200E0114120C1EE4C0E0120CA8900060D6
:100A6700E0601320E70714F01208A2802204F0D0F8
:100A7700E014C0E07F001208A2E50F600712089992
:100A8700150F800B300E03120899D0E00208F4D03E
:100A9700E00480C4120C00609EE50F041203C590A9
:100AA7000060EAF0E50F200E026001042404120C36
:010AB7001E20
:100AB80074FF04C0E0120CA81208A2E50F200E0271
:100AC8006003120899D0E0B50FE87F451208AC9092
:100AD8000060E07F2B30E7047F2DF404C0E01208AB
:100AE800BAD0E075F00A84C0F01208A3D0E012086A
:100AF800A30208F4791080027908C20FC211800895
:100B0800D2D5790A8004790AC2D5E50F047002F5B6
:100B18000FE4FAFDFEFF120877FC7B08200A131287
:100B28000877FD7B1030090A120877FE120877FF54
:100B38007B20EC3382D592D55013C3E43009069F4D
:100B4800FFE49EFEE4200A039DFDE49CFCE4CBF850
:100B5800C20AEC700CCFCECDCCE824F8F870F38044
:100B680017C3EF33FFEE33FEED33FDEC33FCEB330D
:100B7800FB994002FB0FD8E9EB300A05F8D0E0C436
:100B880048B20AC0E00AEC4D4E4F78207B0070C294
:100B9800EAB50F0040BCC0E0120C20D0F0D0E02035
:100BA8000A04C4C0E0C4B20AC0F01208A3D0F0D549
:100BB800F0EB0208F41207F70991530AFC5809628E
:100BC8004C095E420B004F0B08440B084909774358
:100BD8000B0E550A3B460A9B450A05470CDB500994
:100BE800662D096A2E098D2B096E23098B200CC4EA
:100BF8002A09264800000985E50FB4FF03750F068A
:100C0800120877FC120877FD120877FE120877FFA2
:100C1800900059020402790AA2D5200C14300E095A
:100C2800B910020404B9080104A2D5200F0250012A
:100C380004200B68920BB50E005034C0E07F2030C2
:100C48000C197F30A20B720F720E500F120C77C264
:100C58000BC20FC20EC2117F30800F300E03E9C0E5
:100C6800E01208BA300E03D0E0F9D0E0B50ECC306F
:100C78000E177F30B9100C1208BA7F58300D077F55
:100C8800788003B908031208BA300B057F2D0208D3
:100C9800BA7F202011F87F2B200FF322920B80CFF0
:100CA8007F00B40700500B2459F582E43400F58323
:100CB800E0FF22286E756C6C2900D20A1208773082
:100CC8000AF8C20A780E30D50108F60209262D5016
:100CD8004349581208772403B405004001E4900CF6
:100CE800D6931208AB743A1208ABD20C750E0402F4
:020CF8000AFCF4
:10037B00E9D2E7C933E833F892D5EDD2E7CD33ECC8
:07038B0033FC5002B2D52241
:10039200EC30E7100FBF000C0EBE00080DBD0004CC
:1003A2000BEB6014A2D5EB13FCED92E7FD2274FF78
:1003B200FCFDFEFF22E480F8A2D574FF13FC7D80D1
:0303C200E480EFE5
:1003C500F920E73624F950037907E4F42402FBE524
:1003D50082158270021583DBF6E024FB501BE96071
:1003E50014E4F0E582158270021583E004F0B40A86
:0D03F50008E4F0D9EE7401F00A22C2D5220E
:10040200ED33EC3392D5FA602AB4FF33EDC2E77BC9
:10041200FF60067A047927E4227A04793020D50431
:100422007A04792B224E614E002B494E46002D490B
:100432004E4600E47A08F0A3DAFC7B00740722C07F
:1004420083C082ECC0E0EDC0E0EEC0E0EFC0E0EAC5
:1004520075F010A4CAABF075F04DA42BFBE435F097
:10046200FCEA2410FAEB34C5FBEC34D9FCEDC2E70C
:10047200FF75F056A4F42411C5F0F434C58FF0A42E
:100482002AE5F03BE43CF020E714120537D0E0FF08
:10049200D0E0FED0E0FDD0E0FC1202278014F4048C
:1004A200120537D0E0FFD0E0FED0E0FDD0E0FC1234
:1004B200011ED082D083E0FAEDD2E7CD33EC3324B3
:1004C20082FBE4C3CF33CFCE33CECD33CD33DBF398
:1004D2007B0775F00A846004F0A31B0AE5F0F0A321
:1004E2008FF0740AA4FFACF08EF0740AA42CFEAC58
:1004F200F050010C8DF0740AA42CFDE435F0F0A349
:05050200DBDE7407229E
:100507003F8000004120000042C80000447A0000FC
:10051700461C400047C35000497424004B1896807E
:100527004CBEBC205A0E1BCA6753C21C749DC5AE75
:10053700FB60065407601C2323120565EB543860E3
:100547000912055112056012011EECF8EDF9EEFAD9
:10055700EFCB22EB12056080F1543803241C900581
:1005670007FE93FC0EEE93FD0EEE930ECE93FF2245
:101D5100021B70E493A3F8E493A34003F68001F21D
:101D610008DFF48029E493A3F85407240CC8C33393
:101D7100C4540F4420C8834004F456800146F6DF62
:101D8100E4800B01020408102040809017B1E47E2A
:101D9100019360BCA3FF543F30E509541FFEE49357
:101DA100A360010ECF54C025E060A840B8E493A31E
:101DB100FAE493A3F8E493A3C8C582C8CAC583CA49
:101DC100F0A3C8C582C8CAC583CADFE9DEE780BE01
:01188F000058
:10057700BB010689828A83E0225002E722BBFE0282
:09058700E32289828A83E49322B5
:10059000BB010CE58229F582E5833AF583E0225020
:1005A00006E92582F8E622BBFE06E92582F8E2226A
:0D05B000E58229F582E5833AF583E4932284
:1005BD00BB010689828A83F0225002F722BBFE011D
:0205CD00F32217
:1005CF00BC000BBE0029EF8DF084FFADF022E4CC10
:1005DF00F875F008EF2FFFEE33FEEC33FCEE9DECD9
:1005EF00984005FCEE9DFE0FD5F0E9E4CEFD22ED1F
:1005FF00F8F5F0EE8420D21CFEADF075F008EF2F69
:10060F00FFED33FD4007985006D5F0F222C398FD59
:05061F000FD5F0EA22F6
:10062400C5F0F8A3E028F0C5F0F8E5821582700261
:060634001583E038F022FE
:10063A00A3F8E0C5F025F0F0E58215827002158373
:06064A00E0C838F0E822D0
:10065000BB010A89828A83F0E5F0A3F0225006F7F5
:0F06600009A7F01922BBFE06F3E5F009F31922F2
:10066F00E88FF0A4CC8BF0A42CFCE98EF0A42CFC2A
:10067F008AF0EDA42CFCEA8EF0A4CDA8F08BF0A4A8
:10068F002DCC3825F0FDE98FF0A42CCD35F0FCEB07
:10069F008EF0A4FEA9F0EB8FF0A4CFC5F02ECD39CC
:0F06AF00FEE43CFCEAA42DCE35F0FDE43CFC2239
:1006BE0075F008758200EF2FFFEE33FECD33CDCCF3
:1006CE0033CCC58233C5829BED9AEC99E582984076
:1006DE000CF582EE9BFEED9AFDEC99FC0FD5F0D653
:1006EE00E4CEFBE4CDFAE4CCF9A88222B800C1B97D
:1006FE000059BA002DEC8BF084CFCECDFCE5F0CBBB
:10070E00F97818EF2FFFEE33FEED33FDEC33FCEBF3
:10071E0033FB10D703994004EB99FB0FD8E5E4F9AE
:10072E00FA227818EF2FFFEE33FEED33FDEC33FC9B
:10073E00C933C910D7059BE99A4007EC9BFCE99A8F
:10074E00F90FD8E0E4C9FAE4CCFB2275F010EF2FD4
:10075E00FFEE33FEED33FDCC33CCC833C810D707D4
:10076E009BEC9AE899400AED9BFDEC9AFCE899F80F
:0E077E000FD5F0DAE4CDFBE4CCFAE4C8F922A2
:0E078C00C3E49FFFE49EFEE49DFDE49CFC227E
:0C079A00ECF0A3EDF0A3EEF0A3EFF022D2
:1007A600A8828583F0D083D0821207BD1207BD12BE
:1007B60007BD1207BDE473E493A3C583C5F0C583E3
:1007C600C8C582C8F0A3C583C5F0C583C8C582C89D
:0107D6002200
:1007D700F8E0FBA3A3E0F925F0F0E58215827002AB
:0707E7001583E0FA38F0224F
:0907EE00EBF0A3EAF0A3E9F0220C
:1007F700D083D082F8E4937012740193700DA3A391
:1008070093F8740193F5828883E4737402936860A4
:06081700EFA3A3A380DFA4
:10081D00D083D082F8E4937012740193700DA3A36A
:10082D0093F8740193F5828883E473740293B5F0A1
:0D083D00067403936860E9A3A3A3A380D809
:10084A00EC8EF0A4CCC5F0CCCDF8EFA4CEC5F02D3B
:10085A00FDE43CFCE8A42EC8C5F03DFDE43CFCEFF9
:0D086A00A4FFE5F028FEE43DFDE43CFC2287
:00000001FF
